:020000041004E6
:1000000000600020497E0410317D041011040410AA
:10001000AA5555AA45554C420000000000000000BA
:100020000000000000000000000000003167041024
:100030000000000000000000E16604102D650410BF
:100040004D440410357D0410000000000000000045
:100050002D360410397D04100D100410517D04104C
:100060000000000000000000000000000000000090
:1000700000000000557D0410597D04105D7D0410C2
:10008000000000003D7D0410417D0410457D0410FA
:10009000497D04104D7D0410657D0410617D0410C0
:1000A0000000000000000000000000000000000050
:1000B0000000000000000000000000000000000040
:1000C000EFF31482EFF309811C4880F31488BFF327
:1000D0006F8FF0B543464C4655465E466746F8B4CA
:1000E000174CEFF30883236006B4164C2068164CB7
:1000F0002060164C2068164C2060164C2068164C68
:100100002060164C276800202060BFF34F8F30BF5F
:1001100027600B4C246884F3088882B003BCF8BCC9
:100120009846A146AA46B346BC46F0BC04BC80F340
:10013000098881F31488BFF36F8F10470000000017
:100140000800002004ED00E06C23002024ED00E016
:100150006823002000E200E0642300200800204023
:10016000002934D00123002210B488422CD301246A
:100170002407A14204D2814202D209011B01F8E7FF
:10018000E400A14204D2814202D249005B00F8E7B8
:10019000884201D3401A1A434C08A04202D3001BE4
:1001A0005C0822438C08A04202D3001B9C08224317
:1001B000CC08A04202D3001BDC082243002803D055
:1001C0001B0901D00909E3E7100010BC704701B515
:1001D000002000F00BF802BD0029F8D003B5FFF7AE
:1001E000C1FF0EBC4243891A1847C0467047C0463B
:1001F000844608006146FFE71FB508F07AFC002836
:1002000001D40021C8421FBD10B508F00FFC4042C8
:10021000013010BD10B508F06CFC002801DB002097
:1002200010BD012010BDC04610B508F062FC0028CA
:1002300001DD002010BD012010BDC04610B508F042
:100240001AFC002801DC002010BD012010BDC046B2
:1002500010B508F010FC002801DA002010BD0120C4
:1002600010BDC046002B11D1002A0FD1002900D1AA
:10027000002802D00021C943080007B4024802A1A7
:100280004018029003BDC04665FFFFFF03B46846F7
:1002900001B5029808F0ECF8019B9E4602B00CBC38
:1002A0007047C04602B4714649084900095C4900DC
:1002B0008E4402BC7047C04603B4714649084000F2
:1002C0004900095A49008E4403BC7047D0400B00D6
:1002D000D1409C46203AD340184352426346934053
:1002E000184370479140030090409C46203A934049
:1002F000194352426346D340194370478446100065
:1003000062468C461900634600E0C0461FB50AF0FD
:100310002DFB002801D40021C8421FBD10B50AF0F2
:100320007FFA4042013010BD10B50AF01FFB0028D3
:1003300001DB002010BD012010BDC04610B50AF041
:1003400015FB002801DD002010BD012010BDC046B6
:1003500010B50AF0A7FA002801DC002010BD01202A
:1003600010BDC04610B50AF09DFA002801DA002041
:1003700010BD012010BDC0461C2101231B04984262
:1003800001D3000C10391B0A984201D3000A083926
:100390001B09984201D30009043902A2105C4018DD
:1003A0007047C04604030202010101010000000081
:1003B0000000000010B5002903D1FFF7DDFF203059
:1003C00002E00800FFF7D8FF10BDC0460023C25C62
:1003D0000133002AFBD1581E7047000003B4714658
:1003E000490840004900095E49008E4403BC70473B
:1003F00010B503F0F3FC054803F01AFE00F00EF808
:1004000000F016F805F042FCFEE7C046FC1D0610A1
:10041000802010B5C00106F0FDFFFEE710B500F02A
:1004200099F802F07DFB01F0DDFE00F089FF10BDC0
:1004300010B51B4B84B002931A4B80220193022308
:100440001949009352000023184805F0A9FA012425
:10045000C022174B17490293174B00940193520087
:100460000023164805F09CFA8022154B154902938B
:10047000154B0094019352000023144805F090FAA4
:10048000134BC0220293134B1349019303235200D1
:1004900000931248002305F083FA04B010BDC04653
:1004A00040180020401400202C1E0610110A0410D1
:1004B000DC130020301E0610DC0D0020252B04105C
:1004C000780D0020381E06107809002089240410B9
:1004D0001409002014030020401E061029170410E0
:1004E00070B5040001E005F0F9FF00F02DFC1828BC
:1004F000F9D900F071FD7D2003F0ECF901E005F081
:10050000EDFF012003F016FA0128F8D1260000F0D3
:100510006FFD1C360E4D01E005F0E0FF00F014FC0D
:100520000028F9D000F058FD2800216803F0EAF90E
:1005300001E005F0D3FF012003F0FCF90128F8D118
:10054000043400F055FD0435B442E7D170BDC04617
:1005500000E8071030B5224C0025220083B02300AC
:10056000202150320820009504F074F8AA22AC2112
:10057000043C5200A552563AFF3A490062500C31F1
:10058000625020600C3117486550043160500431CE
:10059000625010316250144C2378002B0ED1237816
:1005A000002B0BD01148FFF79BFF114803F0F6FC1E
:1005B0002078C0B203F0EAFC03B030BD62680D4B96
:1005C0009A42EFD8A0680021FFF742FE0028E9D048
:1005D000A0680949FFF728FE0028E9D1E2E7C046F4
:1005E000A8180020000080BF00E80710003A06109D
:1005F000441E06103F420F000000C842022310B5FF
:1006000088B00093094B01AA13CB13C213CB13C2BA
:100610001B68694613600122054B5242186800238B
:1006200004F07EF8002008B010BDC046003A061065
:10063000A4180020014B98687047C04600E80710D6
:1006400070B500218AB0051C0190FFF701FE00285B
:100650002BD01749281CFFF7E7FD002825D0154CA3
:10066000281CA168FFF7D0FD002802D000200AB0A6
:1006700070BD0223029303AB45CC45C345CC45C3B3
:10068000226802A91A6001220B4B5242186800230B
:10069000CD6004F045F800F047FB0028E6D10422C5
:1006A00001A9043000F0AEFBE0E701204042DEE7A4
:1006B0000000C84200E80710A4180020014B586849
:1006C0007047C04600E8071070B5124B050088B0AF
:1006D00098421CD8104C6368834215D000F042FB4E
:1006E000002814D10223009301AB45CC45C345CC6F
:1006F00045C3226869461A600122084B52421868B5
:100700000023029504F00CF8002008B070BD012011
:100710004042FAE73F420F0000E80710A41800200B
:10072000014B1878C0B2704700E8071070B50F4B46
:1007300004001A7888B0824214D00222009201AAE2
:1007400061CB61C261CB61C21B6869461360012243
:10075000074B5242186800230C7103F0E1FF2000A0
:1007600003F014FC002008B070BDC04600E807107C
:10077000A4180020004870470CE8071030B50100AD
:1007800089B0002815D0022300930B4B01AA31CB6E
:1007900031C231CB31C21B6804A8136010220AF0A9
:1007A000FFF90122054B694618685242002303F005
:1007B000B7FF09B030BDC04600E80710A4180020FC
:1007C00010B5034803F0EAFB03F004FE10BDC04679
:1007D000741E0610B223012270B5AA25504C5B008E
:1007E0005242E2506D00635DDA071CD402221A42C5
:1007F00008D05621FF31615C0A423CD05622FF32BC
:10080000A35470BD082210211A40194212D0002AA8
:100810004AD15B0741D5FA220321C820520001F0DA
:10082000F3FC635DEAE700220121002001F0ECFC0B
:10083000635DE3E75623FF33E35C1940002A22D0CF
:10084000002947D005F092FAB8235B00E358C01A9C
:10085000FA235B0098425DD8324B9968BA235B005B
:10086000E058FFF7E1FC00283CD1C8220421C82051
:1008700001F0CAFC3BE0FE220221C820920501F0F3
:10088000DDFC635DBAE7002200291DD0FA200021BB
:10089000000101F0B9FC635DB0E70321C820224AE2
:1008A00001F0CCFC635DA9E71E4B9968BA235B009D
:1008B000E058FFF7B9FCC822002825D00821C8203D
:1008C00001F0A2FC635D99E70021C82001F09CFCC7
:1008D000635D93E703F00CFD124B9968FFF7A4FCEE
:1008E0000028C2D0C8220821C82001F08DFC2000B9
:1008F000B2230E4A69305B00FF30E25005F056FB30
:10090000AA235B00E35C79E70421C82001F07CFCAA
:10091000635D73E764220121002001F0ABFCE6E790
:10092000A418002000E80710CDCC4C3EC8AF000052
:1009300070B5AA240A4D64002B5DDB060BD509486F
:1009400003F02CFB03F032FD04222B5D13432B55E7
:10095000FFF740FF70BD044803F020FBFAE7C046F4
:10096000A41800208C1E0610A41E061070B580204E
:1009700006F048FD244C012814D0C2235B00E35C40
:10098000002B0ED17933FF33E358013304D0AA256D
:100990006D00635D9B0723D5BC2301225B0052429F
:1009A000E25070BDAA2502266D00635D1E420DD087
:1009B000C42301225B0052420020E25000F0F8FD07
:1009C000635DB3436355FFF705FFEAE72000BC23EF
:1009D00096227D305B00FF30E25005F0E7FAE0E759
:1009E000012000F0E5FD0222635D13436355FFF72C
:1009F000F1FE2000C423054A8D305B00FF30E25039
:100A000005F0D4FAC8E7C046A4180020B80B0000CF
:100A1000F0B5DE46574645464E46E0B5AC2791B0A8
:100A200004229F49042000F0EDF9012003F000FDAD
:100A300008AB98469B4B9C4C04939C4B7F000593C2
:100A40009B4B01939B4B02939B4B03939B4B0093BC
:100A5000C4235B0099464B46B226BC25E15876007C
:100A60006D0045E0E359013309D0210020005931E0
:100A70005D30FF31FF3005F0B9FA00287CD1A35971
:100A8000013309D02100200065316930FF31FF308A
:100A900005F0ACFA002866D16359013324D0BE2397
:100AA0005B0021009A467931A2445046FF3105F09F
:100AB0009DFA002818D001235B4263518633FF332F
:100AC0009B46E35C002B5AD100F08CFD502278232A
:100AD0000721002001F0CEFB1E235046635105F094
:100AE00065FA01235A46A3544B46E1584B1C4FD19B
:100AF000A259E359934200D9130062599A4200D98E
:100B00001A008A4200D90A004146206804F052F8CF
:100B10000128A7D143461B78012B5BD0022B52D072
:100B2000002B9FD143461B799A46002B72D0012B94
:100B300098D103F073FC8346002800D19CE0049810
:100B400003F02CFA524606ABDA71D91D01220120BE
:100B500000F058F9AA2208215200A35C0B43A354C9
:100B6000FFF738FE7EE7012300225B4200210020D0
:100B7000A35101F049FB8FE703F044FA7FE700231C
:100B80005A46A35403F03EFA4B46E1584B1CAFD0F3
:100B90002100200089318D30FF31FF3005F026FA29
:100BA000002800D157E701234A465B420020A350AA
:100BB00000F0FEFCAA2202215200A35C8B43A35446
:100BC000FFF708FE44E709A8FFF78AFC009803F046
:100BD000E5F947E743461B79012B2CD0022B1CD0AB
:100BE000002B00D03EE7019803F0D8F98020C00127
:100BF00006F010FC2000324B5D30FF30E35105F071
:100C0000D5F9AA2201215200A35C0B43A354FFF79C
:100C1000E1FD27E7FFF7AAFE24E7039803F0BEF9FA
:100C200003F0ACFBAA2214215200A35C8B43A35413
:100C3000FFF7D0FD16E7029803F0B0F9C4230122B4
:100C40005B005242E25005F091F8B8235B00E0509F
:100C500003F000FB082804D003F04AFBBA235B0032
:100C6000E050AA2202215200A35C8B4310210B43C7
:100C7000A354FFF7AFFDF5E6059803F08FF95A4648
:100C800006ABDA71D91D0122012000F0BBF8AA22BF
:100C900008215200A35C8B43A354FFF79BFDE1E6C0
:100CA00008E80710241F0610A41800203C1F061097
:100CB000D01E0610081F0610EC1E0610541F06104A
:100CC000B80B0000F0B50B4B05001E680C0089B096
:100CD000002E0CD06F4620220021684609F02EFF1E
:100CE00000232200694630003D7103F0B9FE09B0CF
:100CF000F0BDC046A418002030B589B00500202200
:100D00000021684609F01AFF6C4601230122237076
:100D1000044B6946186852420023257103F000FD18
:100D200009B030BDA418002010B505F0BDF90028A9
:100D300006D0044B1B68181A43425841C0B210BD7C
:100D40000020FCE7381A0020BC22054B10B59C5847
:100D500010F044FA0100200010F03AFA10BDC0462D
:100D6000381A0020012300B587B0049300230293B2
:100D700010330193093B03900093012200230121CA
:100D800001200CF0E5FB03000020002B01D107B08F
:100D900000BD044A9B009958034803F0FFF8012066
:100DA0004042F4E7983A0610701F0610012130B552
:100DB000114D83B004004942286E04F061F86A4680
:100DC00000232100D01DD3710CF0A0FB00280AD114
:100DD0006B46DC79002300220021286E03F0A0FC82
:100DE000200003B030BD0124044B8000C1580448EA
:100DF00003F0D4F86442EDE7381A0020983A061060
:100E0000941F0610F0B54746CE4680B504000F008B
:100E100015008DB0042800D976E03D4A8300D358F0
:100E20003C4E9F46CC23F35A99463B4B994500D103
:100E30006AE000239846002D20D00121306E4942FF
:100E400004F01EF8C423F15A043BF05AEBB20293AB
:100E500043460193ABB2039700934A4601230CF03B
:100E600046FCBA27F055012C28D0A84600281BD1F3
:100E7000002300220021306E03F052FC40460DB0EA
:100E8000C0BCB946B046F0BDCE23F35A9946CCE774
:100E9000C623F35A9946C8E7C823F35A9946C4E7CC
:100EA000CA23F35A9946C0E71C4B8000C1581C481E
:100EB00003F074F801235B429846D9E7FFF75AFC28
:100EC0001021814609F080FE04AB984604001B22E5
:100ED000002105A809F032FE124B049303F09EFA9C
:100EE000434642461871631C537117200923494633
:100EF000937168442200073409F0B1FE4146E0B224
:100F000010F0CAF8F05DB0E701235B429846B5E700
:100F10001C3A0610381A0020FFFF0000983A06100D
:100F2000BC1F0610042DFFFFF0B510218DB0060088
:100F300009F04AFE0121244D04004942286E03F0C5
:100F40009FFFB623EA5A023BE95AE3B20293002319
:100F5000A4B201930396009400200CF0C8FBFFF7A5
:100F600009FC1021070009F02FFE1B2204000021BC
:100F700005A809F0E3FD154B04AE049303F04EFA07
:100F8000631C3071172073710923220039006844F3
:100F90000734B37109F063FE3100E0B210F07CF861
:100FA000002300220021286E03F0BAFBBA23EB5C79
:100FB000002B01D10DB0F0BD054A9B0099580548A2
:100FC00002F0ECFFF6E7C046381A0020042DFFFFC0
:100FD000983A0610E01F0610044B10B5186E002852
:100FE00003D00121494203F04BFF10BD381A002005
:100FF000054B10B5186E002804D0002300220021F4
:1010000003F08EFB10BDC046381A002010B5002436
:1010100082B0019410F0E8FE6B466946DC70084B24
:1010200001AA58680331002303F01AFD019B002B2D
:1010300003D08022034B52051A6002B010BDC04697
:10104000381A002004ED00E0F0B5C64600B592B0B5
:10105000FFF790FB1021050009F0B6FD8023504AF0
:101060005B05995C08AA11704E490600595C002086
:1010700051704D49595C91704C49595CD170FF21B8
:10108000C900595C11714A495B5C062153710CF02F
:1010900043FB041E04D0200012B080BCB846F0BD53
:1010A000072101200CF034FB041EF4D141480FF05D
:1010B000D3FF041EEFD1FF200FF0F6FD041EEAD18E
:1010C0000CF007FB041EE6D13B4F10223B1D0193A1
:1010D000BB1C009302213B0001200CF021FA041EEE
:1010E000D9D1B4235B429846B8447A884346B427A2
:1010F000D95BF3B2B6B202930190002300200395AE
:1011000000960CF0F4FA1E23E1226B44D2001A8000
:101110004146B822895A4246D05B009300220223FE
:101120000CF0DBFA041EB6D100200CF05BFA041EB2
:10113000B1D1FFF7C3FA012304930F330193093BA5
:1011400003900294009301220023012101200CF05E
:10115000FFF9041E9FD1FFF70DFB1021070009F0D6
:1011600033FD1B22050000210BA809F0E7FC134BFF
:101170000AAE0A9303F052F96B1C30712F20737181
:1011800009232A0039006844B37109F068FDE81D9D
:101190003100C0B20FF080FFBA234246D0547AE744
:1011A000F4070000F5070000F6070000F70700004D
:1011B000F907000010250020EC1A0020042DFFFF85
:1011C000F0B54E4645465746DE46E0B55A4B9FB011
:1011D00006A918000A0070C870C200680AAC106046
:1011E0001A0020001032E0CAE0C0126802601A0043
:1011F0000EA82032E0CAE0C0126802601A0012A8ED
:101200003032E0CAE0C0126802601A0016A840320C
:10121000E0CAE0C01268503302601AAA904661CB5F
:1012200061C21B6802201360444B0122994600935F
:101230000C230CF02DFA002806D01FB0F0BCBB46E2
:10124000B246A946A046F0BDC4235B424B449B4630
:10125000C4239A465B4652469B5A38219C464B46CD
:10126000023305931023C33A049008301E00039301
:10127000029201910090220060460F3B36390CF03B
:10128000E8F90028D9D15C465546645B0221A446A2
:101290004C46231D0593330007240233049002902B
:1012A0000093604603960194113B0EAA0CF0D1F90D
:1012B0000028C2D157465D46ED5B4F46BB1D01225B
:1012C00038210593330004900830170002920191F1
:1012D0000090039628000F3B12AA36390CF0B9F99A
:1012E0000028AAD15946554604234D5B494602932E
:1012F0000831023B059104900093022128000396D7
:101300000194023316AA0CF0A4F9002895D15B468B
:1013100051465C5A4B460A3305933F230193353BB4
:10132000049000934246200003960297063BC23980
:101330000CF08FF981E7C046241D0610FC1A00202E
:1013400030B5284C0023220083B025005032012103
:1013500000930820230003F07DF92100083D686018
:101360005C31012003F03AFB28661F480CF01AFAA2
:10137000BA242855002810D1FFF766FEBA251B4C69
:101380006055002814D1FFF71BFFBA2560550028CF
:101390001DD1174802F002FE08E0164B8000C1582C
:1013A000154802F0FBFD2B5D002BE5D003B030BDEE
:1013B000104B8000C158114802F0F0FD635D002B16
:1013C000F4D1FFF7FDFEBA2560550028E1D0094BA6
:1013D0008000C1580A4802F0E1FD635D002BD8D0BF
:1013E000E4E7C046401A0020983E0610381A002054
:1013F0003C200610983A0610042006101C20061007
:101400005C200610F0B5C64600B5ACB06B4602A92C
:10141000D81D0CF07BF81E4B04009846BA234246B8
:10142000D05400280CD01B4BA400E1581A4802F0FD
:10143000B5FD0020FFF760FC2CB080BCB846F0BDC5
:101440006B46DF7902AD17AE002F0CD02B7801343C
:101450003370701C691C0622E4B209F000FC0735E9
:101460000736BC42F2D10CF04DF8BA254346041EB3
:101470005855D8D16B46D8790028DDD0012217A95C
:1014800002F082FB4346041E5855D5D0CBE7C04638
:10149000381A0020983A06107C200610F0B5C6468F
:1014A000C226402200B53C4C88B0A35D05009343A2
:1014B000A3555BB2002B52DB0CF09CF8BA23E0542E
:1014C00000280ED046280CD0344B8000C158344838
:1014D00002F064FD0020FFF70FFC08B080BCB846A6
:1014E000F0BDFFF747F91021804609F06DFB0600BB
:1014F0006F461B22002101A809F020FB294B009315
:1015000002F08CFF731C7B71092332004146387155
:101510000736F81DBB7109F0A2FBF0B269460FF067
:10152000BBFDBA26A0550028CED1002D25D08021A4
:101530000130002302228900FF300CF065F8A0552D
:101540000028C1D1C2224021A35C17480B43A354F9
:1015500002F024FDBA23E05C0028BED0B4E7C0232B
:101560001321E05A0CF05EF8BA23E054002DB4D0F9
:101570004022A35D1343A355AFE7B421F02003231A
:101580000222C90080000CF03FF8A05500289BD132
:10159000064802F003FDDDE7381A0020983A0610ED
:1015A000DC200610042DFFFFA0200610C42006102A
:1015B000012170B50A4D04004942286E03F060FC19
:1015C000C223EB5C5B06DB0FA34202D02000FFF7D7
:1015D00065FF286E00230022002103F0A1F870BDF2
:1015E000381A0020012170B5134C4942206E03F0D7
:1015F00047FC0BF083FFBA23E054002813D10F48B7
:1016000002F0CCFCFFF7FEFEC223E05C00254006A2
:10161000C00FFFF743FF002300220021206E03F0DC
:101620007FF8280070BD0125054B8000C158054892
:1016300002F0B4FC6D42EEE7381A00202C210610AF
:10164000983A06100021061030B5C2250223334C0B
:1016500085B0605D03420DD10423034218D10123FC
:1016600003421ED10823034227D1202303423CD149
:1016700005B030BD98436055BE33E05A0BF0CEFF45
:10168000BA23E05400283ED1605D04230342E6D033
:10169000C22598436055FFF7B5FE0123605D034204
:1016A000E0D00200C22540069A43C00F6255FFF702
:1016B000F5FE0823605D0342D7D0C22598436055EC
:1016C00002F016FECC230390E15A083BE05A03AB2C
:1016D0000022009304230CF000F8C023E05A0BF022
:1016E000F2FF2023605D0342C2D0C22598436055BB
:1016F000A033E05A0BF0FEFE0028B9D14022635D12
:1017000013436355B4E7064B8000C158054802F007
:1017100045FC0020FFF7F0FA605DB6E7381A0020BC
:10172000983A06105021061030B583B004F0BCFC86
:10173000BA23214C2060E35C002B38D10121206EBC
:10174000494203F09DFBFFF75DFE0020FFF7A6FE78
:10175000002300220021206E02F0E2FF6B46DD1D17
:1017600005E0002300220021206E02F0D9FF0122B3
:1017700029005242606803F01DFA0121206E49429F
:1017800003F07EFB2B78002BEBD18020C00105F00D
:1017900041FE03E00BF0C4FFFFF756FF1FF03AFBDA
:1017A0000028F7D08020C00105F038FED9E70020DE
:1017B000FFF7A2FAC2E7C046381A002070B506004B
:1017C0000D0014000D4802F0E9FB31000C4802F056
:1017D000E5FB29000B4802F0E1FB21000A4802F07A
:1017E000DDFBC2217F23094A505C034001200343F3
:1017F00002205354FFF780FA70BDC04678210610CE
:101800009C210610AC210610C8210610381A0020B1
:10181000F0B5DE4657464E464546E0B50D0087B06A
:101820001F0010AB10CB05901B8837489B4612ABAE
:101830001B8816009A4613AB1B88994614AB1B787D
:10184000984602F0ABFB0599304802F0A7FB29004F
:101850002F4802F0A3FB002E4CD12E492E4802F057
:101860009DFB002F4CD12D492D4802F097FB267887
:10187000E37822796179029666782A480196A478FD
:10188000009402F08BFB584607F062FC08F016FF4C
:101890000022254B08F0E8F908F0DEFE234B01009A
:1018A000180002F07BFB5146214802F077FB4B46C3
:1018B000990049441F48490002F070FB4346072B3A
:1018C00020D81D4A9B0099581C4802F067FBC02293
:1018D000C2211B4B9D52585C3F3AFF3A0243012004
:1018E0005A54FFF709FA07B0F0BCBB46B246A94606
:1018F000A046F0BD1349084802F050FB002FB2D0BB
:101900001149B1E71149DFE7182206109C210610A2
:10191000AC210610D82106103C220610E821061042
:1019200048220610602206100000F43F80220610B4
:1019300098220610B0220610783A0610D02206101F
:10194000381A0020E021061000220610281E06107A
:10195000F0B5DE4657464E4645468846E0B589B066
:101960001F0015AB1B8805909B4616AB1B884C4887
:10197000079317AB1B880692994618AB1B78129EEB
:101980009A46139D149C02F009FB0599454802F004
:1019900005FB4146444802F001FB069B002B67D142
:1019A0004249434802F0FAFA002F67D0012F6FD066
:1019B000022F69D0032F6FD03778F378327971799D
:1019C000029777783B480197B678009602F0E6FADE
:1019D0002E78EB782A79697902966E7836480196E6
:1019E000AD78009502F0DAFA2578E378227961790A
:1019F0000295657831480195A478009402F0CEFAFA
:101A0000584607F0A5FB08F059FE00222C4B08F0C1
:101A10002BF908F021FE2B4B0100180002F0BEFA52
:101A20000799294802F0BAFA4B46990049442748D9
:101A3000490002F0B3FA5346072B23D8244A9B00EF
:101A40009958244802F0AAFA4146C022224B9952E2
:101A5000C2213F3A585CFF3A024301205A54FFF733
:101A60004BF909B0F0BCBB46B246A946A046F0BD52
:101A70001A490F4802F092FA002F97D1184802F045
:101A80008DFA99E71749DCE7174802F087FA93E7E0
:101A9000164802F083FA8FE7154802F07FFA8BE7C9
:101AA000EC2206109C210610AC210610D82106104D
:101AB0003C22061060220610D82306100C240610C3
:101AC0000000F43F8022061098220610B022061073
:101AD000783A0610D0220610381A0020E0210610AD
:101AE00018230610281E0610702306104423061023
:101AF000A023061070B505001C480E00140002F06B
:101B00004DFA29001A4802F049FA052E0BD9194955
:101B1000194802F043FAC223184AD35C40218B4390
:101B20008231535470BD164BB200D158124802F0A6
:101B300035FA022E0FD1013CE4B20B2C09D8114B1F
:101B4000A400E158104802F029FAC2230B4AD35CE2
:101B5000E4E70849F6E7C223084AD35C002EDDD14A
:101B60005906DBD504210B43D8E7C04640240610B4
:101B7000AC210610281E061064240610381A002016
:101B8000603A0610303A061074240610F8B50700C3
:101B90000C0016001D00214802F000FA3900204810
:101BA00002F0FCF921001F4802F0F8F931001E484C
:101BB00002F0F4F929001D4802F0F0F90D2C0AD8C2
:101BC0000123A3401A4A134204D1072C03D10698DB
:101BD000FEF7D4FDF8BDC623164AD35A01339C4202
:101BE00015D0CA23D35A01339C4209D0CE23D35AED
:101BF00001339C42EED1069B1868FEF721FDE9E710
:101C0000069B1B78012BE5D1FEF7DAFDE2E7069B88
:101C10001B78012BDED1FEF78BFEDBE78424061058
:101C2000AC210610A8240610BC240610CC240610F3
:101C3000042A0000381A002070B506000D001400B8
:101C40000A4802F0ABF93100094802F0A7F929006F
:101C5000084802F0A3F92100074802F09FF9C221C9
:101C60000820064B5A5C02435A5470BDE424061007
:101C7000AC21061008250610BC240610381A0020D6
:101C8000BC21014B5A507047381A002010B5034848
:101C900002F084F90020FFF72FF810BD242506106C
:101CA00070B505000C00084802F078F929000748D3
:101CB00002F074F92100064802F070F9054906485F
:101CC00002F06CF970BDC046402506109C2106103C
:101CD000AC210610602506108C25061010B50248B0
:101CE00002F05CF910BDC046A825061010B50248E8
:101CF00002F054F910BDC046E025061010B50248A8
:101D000002F04CF910BDC0460826061010B5024876
:101D100002F044F9002010BD3426061010B5024828
:101D200002F03CF910BDC0464C260610F0B5C64680
:101D300000B580461C006B460F00160014481D8B32
:101D400002F02CF94146134802F028F939001248F4
:101D500002F024F9300007F0FBF908F0AFFC002294
:101D60000E4B07F081FF08F077FC0D4B01001800C7
:101D700002F014F921000B4802F010F9A9004919EA
:101D80004900094802F00AF980BCB846F0BDC046D7
:101D9000702606109C210610AC2106100000F43FAE
:101DA0008022061098220610B022061010B50248B4
:101DB00002F0F4F810BDC0469C26061010B502488B
:101DC00002F0ECF810BDC046D026061010B502484F
:101DD00002F0E4F810BDC046F826061010B502481F
:101DE00002F0DCF810BDC0461C27061010B50248F2
:101DF00002F0D4F810BDC0465027061010B50248B6
:101E000002F0CCF810BDC0467827061010B5024885
:101E100002F0C4F810BDC046A427061010B5024851
:101E200002F0BCF810BDC046CC27061010B5024821
:101E300002F0B4F810BDC046EC27061010B50248F9
:101E400002F0ACF810BDC0461028061010B50548C9
:101E500002F0A4F8C2212020034B5A5C02435A54DA
:101E600010BDC0463C280610381A002010B50248A4
:101E700002F094F810BDC0465828061010B502486C
:101E800002F08CF810BDC0467828061010B50C0082
:101E9000034802F083F82100024802F07FF810BDE9
:101EA0009C280610C828061010B5024802F076F8E3
:101EB00010BDC046DC28061010B5024802F06EF8CE
:101EC00010BDC0460429061010B5024802F066F89D
:101ED00010BDC0462429061010B5024802F05EF875
:101EE00010BDC0464829061010B5024802F056F849
:101EF00010BDC0466829061010B5024802F04EF821
:101F000010BDC0469029061010B5024802F046F8F0
:101F100010BDC046B429061010B5024802F03EF8C4
:101F200010BDC046D029061010B5024802F036F8A0
:101F300010BDC046F029061010B5024802F02EF878
:101F400010BDC046142A061010B5024802F026F84B
:101F500010BDC0463C2A061010B5024802F01EF81B
:101F600010BDC046602A061010B5024802F016F8EF
:101F700010BDC046802A061010B5024802F00EF8C7
:101F800010BDC0469C2A061010B5024802F006F8A3
:101F900010BDC046BC2A061010B5024801F0FEFF75
:101FA00010BDC046DC2A061010B5024801F0F6FF4D
:101FB00010BDC046F82A061010B5024801F0EEFF29
:101FC00010BDC046282B061010B5024801F0E6FFF0
:101FD00010BDC0464C2B061010B5024801F0DEFFC4
:101FE00010BDC046742B061010B5024801F0D6FF94
:101FF00010BDC046982B061010B5024801F0CEFF68
:1020000010BDC046C02B061010B5024801F0C6FF37
:1020100010BDC046EC2B061010B5024801F0BEFF03
:1020200010BDC046182C061010B5024801F0B6FFCE
:1020300010BDC046382C061010B5024801F0AEFFA6
:1020400010BDC046602C061010B5024801F0A6FF76
:1020500010BDC046842C061010B5024801F09EFF4A
:1020600010BDC046A42C061070B5144C251D2100CF
:10207000280003F0BBFF002800D170BD0223280018
:102080002600236003F092FF9C24B423413EFF3ED0
:1020900064005B00F158305906F06AFA084D30517F
:1020A00002F0E0F83059291CFEF7D2F80028E4D0FD
:1020B0009A2300225B003551F250DEE7481C0020D5
:1020C0000000C84210B5154C2100201D03F08EFF02
:1020D000002815D0AE23413CFF3C5B00E25C002AA7
:1020E0000FD10122E254B0235B00E2580C48203BA0
:1020F000E250083BE05002F0B5F80A4803F056FF02
:1021000010BD00220020E2540833E258243BE25084
:10211000083BE05002F0A6F8EFE7C046481C00205C
:102120000000C8424C1C0020F8B5284C251D210099
:10213000280003F05BFF002800D1F8BD022328002F
:102140002600236003F032FF03F010FEAC23413E73
:10215000FF3E5B000700F05808F0B0FA1C4A1D4B28
:1021600007F082FD00221C4B07F07EFD00221B4B76
:1021700007F0F4FA040038000D0006F0E9FF08F05B
:102180009DFA02000B002000290007F06DFDAA2334
:102190005B000400F0580D0008F090FA02000B00FC
:1021A0002000290007F012F808F0CAFA09F08AFEA8
:1021B000011CFE20800506F0D3FD094906F0D8FC7D
:1021C0009C235B00F05002F04DF8B6E7481C00205D
:1021D000182D4454FB2119400000344000408F402A
:1021E0000000484210B5074C0023220082B0009343
:1021F0001C2123005032082002F02CFA043C2060FD
:1022000002B010BD0C1B0020F0B589B001AC070076
:102210000E00150000211822200008F08FFC01227A
:10222000054B210018685242002302972672079539
:1022300002F076FA09B0F0BD081B0020F0B589B0B5
:1022400001AC07000E00151C00211C22200008F024
:1022500075FC012301222370054B210018685242AE
:10226000002302972672049502F05AFA09B0F0BDD5
:10227000081B0020F0B5C64600B588B080460F00A8
:10228000160000211C2268461D006C4608F056FC12
:1022900002232370434601220193074B69461868C5
:1022A0005242002327720496059502F039FA08B0CD
:1022B00080BCB846F0BDC046081B0020F8B54746B4
:1022C000CE4680B5AC27A623634E7F00F0515B005D
:1022D000F35C0C00002B69D13933FF33F05898467A
:1022E00008F0ECF9A0225D4B120609F04BFE08F055
:1022F00027FA08F0E3F9A022594B120609F020FE54
:1023000008F01EFA4346F05003F030FD8146F059C4
:1023100008F0D4F9534A544B07F0A6FC0022534B63
:1023200007F0A2FC0022524B07F018FA04004846BE
:102330000D0006F00DFF08F0C1F902000B002000AF
:10234000290007F091FC80231B06CD1843460400AA
:102350004849F05806F088FAFE21890506F000FD8C
:1023600009F066FD08F0AAF902000B002000290020
:1023700007F0A0FE3B4A404B06F028FF08F0E0F9CA
:10238000011C041C06F06EFE002862D165006D0879
:102390003A49281C06F066FE00284FD13749281C10
:1023A000FDF742FF002849D1354C47E003F0DEFC41
:1023B0003222050000232000002106F003F8FA2253
:1023C00000239200FDF74EFF06F0C2FE9C235B0047
:1023D000F15806F0CDFB2A4906F046FA041C280005
:1023E00006F0B6FE011C201C06F0C2F808F066F9E3
:1023F0000400F0590D0008F061F91A4A1A4B07F071
:1024000033FC0022194B07F02FFC0022184B07F079
:10241000A5F902000B002000290007F025FC80230D
:10242000C0221B06C918D205134B07F043FE0D4A04
:10243000114B06F0CBFE08F083F9041CAA239A2264
:102440005B00F4500F4B5200B350C0BCB946B046CD
:10245000F8BD0024F2E7C046081B002099F9584057
:102460009999B93F182D4454FB211940000034407C
:1024700000408F4000004842FB210940FFFF7F7F62
:102480000000C84229210410F0B54546DE465746F3
:102490004E466F4BE0B59B466E4BA6269A46A02350
:1024A00089B05B0000226D4698466B4C760057E081
:1024B00068682F7A002800D190E006F049FE67494D
:1024C00006F0D2F9011C664806F0CEF9A8235B009D
:1024D000E050143B9946E35C2000FA1A511E8A41F1
:1024E000591E8B411340A355424600234530FF300F
:1024F000A35003F05BFDA35D002B0CD14B46E35CC6
:10250000BB4208D09C2300205B00E05001F0AAFEF3
:10251000380001F0E3FD9E235B00E7542B78012B8C
:1025200000D187E0022B5BD0002B1FD1A8690028C7
:1025300000D18BE006F00CFE484906F095F9011C2D
:10254000474806F091F9B4235B00E0505B469A22BD
:102550005200A350A25D002A12D198474346E25888
:102560002900206802F026FB0128A1D09A2301222D
:102570005B00E3585242002BF2D0A25D002AECD05F
:102580002700210045374131FF373800FF3103F084
:102590002DFD0028E2D0424602233800A3509C279C
:1025A00003F004FDA8237F005B00E158E05906F02A
:1025B000D7FBE05101F056FE0023E059191C994663
:1025C000FDF732FE0028C9D04B46E3510023A35546
:1025D0003D33FF33E05C01F081FDBFE7204875E744
:1025E000322200232869002105F0ECFEFA220023A4
:1025F0009200FDF737FEB0236F695B00E050322296
:1026000000233800002105F0DDFEFA2200239200AD
:10261000FDF728FEB2235B00E0504346E050200067
:102620004530FF3003F0C2FCAE2300225B00E254D1
:1026300053468CE76968E868FFF740FE9A23012259
:102640005B00E3585242002B97D189E704487AE7B0
:1026500069200410C5200410081B0020000020423F
:102660000000C84210B5034A0349044801F0E0FCE9
:10267000002010BD103306101C3306102433061042
:10268000F8B5094C094E2700094D903721683000F4
:1026900001F0CEFCA16828000C3401F0C9FCBC425A
:1026A000F4D10020F8BDC046303F0610303306108C
:1026B0003420061010B501282DD0022826D14C68F0
:1026C0001A48210008F042FA002816D021001848C4
:1026D00008F03CFA002810D02100164808F036FA1D
:1026E000002805D02100144808F030FA002818D13D
:1026F0000020FEF71BF8114903E00120FEF716F851
:102700000F49104801F094FC002010BD0E4801F064
:102710008FFC0120F9E7FEF703F80028F0D1074904
:10272000EFE70A4801F084FC0120EEE7543306107D
:10273000203306105C33061064330610483306104D
:1027400040330610C0330610983306106833061065
:1027500030B587B004000D001122002101A808F057
:10276000EDF9012C1FD0022C18D16C682000FDF768
:102770002DFE01380F281ED81022210001A808F0D4
:102780000FFA2000FDF7FAFF6868FEF7CDFB0D4851
:1027900001A901F04DFC002007B030BD0A4801F04E
:1027A00047FC0120F8E7FDF7E5FF1022010001A832
:1027B00008F0F6F9EBE71021044801F039FC01209C
:1027C000EAE7C0461434061098330610D0330610DA
:1027D00000B583B001281AD0022812D1124B4868E4
:1027E00001AA190008F026F9002815D00198FDF774
:1027F0006BFF002814DB01990C4801F019FC002044
:1028000003E00B4801F014FC012003B000BDFDF70C
:1028100055FF01000190EFE7064801F009FCF3E7DE
:10282000054801F005FCEFE7283406107034061067
:10283000983306102C3406105034061070B501F091
:1028400057FD07F03BFF0E4A0E4B06F0BFFC07F0AA
:1028500077FF051C06F01AFC040006F079FC011C49
:10286000281C06F07DFA084906F082F905F0CCFD37
:10287000064B02002100180001F0DAFB002070BDB9
:102880009A9999999999A93F000020417C340610A2
:1028900030B50C0083B0012858D0022851D14D68C2
:1028A0002E21280008F09BF9002805D04378002B42
:1028B00002D000238370656800236A460093019369
:1028C0002800274901AB08F0B5F80138012833D8B2
:1028D000019806F03DFC234905F0C6FF041C009852
:1028E00006F036FC011C201C05F042FE041CFDF71E
:1028F000A7FE00282ED1201C07F0E0FE1A4A1B4B31
:1029000006F064FC07F01CFF051C06F0BFFB04008A
:1029100006F01EFC011C281C06F022FA114906F0E4
:1029200027F905F071FD124B02002100180001F09B
:102930007FFB002003B030BD0E4801F079FB012081
:10294000F8E70D4801F074FB0120F3E7FDF772FE94
:10295000041CD0E7094801F06BFB0120EAE7C04600
:1029600094340610000020419A9999999999A93FA9
:10297000F43406109C34061098330610BC3406104C
:10298000F0B5CE46474680B59BB005A8FEF70EFAD7
:10299000061E36DD1D4801F04BFB1D4BF500994628
:1029A0001C4BAD1B05AC98461B4F1C4E65190AE02D
:1029B000012B02D1404601F03BFB3000073401F00F
:1029C00037FBAC4217D0607823796279A179029005
:1029D000A0780190E0780090380001F029FB23787E
:1029E000002BE5D1484601F023FB0734300001F00D
:1029F0001FFBAC42E7D100201BB0C0BCB946B046BB
:102A0000F0BD074801F014FBF5E7C0462835061075
:102A1000643506106C350610443506106C1F061020
:102A20001435061010B5FEF7DDFD054801F000FB7A
:102A3000142003F0DDF801F0E5FA002010BDC046D7
:102A40007435061010B5FDF7D9FDFEF7CBFD05482E
:102A500001F0EEFA142003F0CBF801F0D3FA0020D5
:102A600010BDC0469035061030B5012387B001284F
:102A700002D0180007B030BDFDF752FE00283BD051
:102A80001E491F4801F0D4FAFDF718FE1D4B010046
:102A9000180001F0CDFAFDF7CDFD07F00FFE1A4A40
:102AA0001A4B06F093FB07F04BFE051C06F0EEFAFE
:102AB000040006F04DFB011C281C06F051F91449D6
:102AC00006F056F805F0A0FC124B02002100180099
:102AD00001F0AEFA1122002101A808F02FF8FDF74D
:102AE00049FE1022010001A808F05AF80A4801A97D
:102AF00001F09EFA0023BCE70849C2E74033061004
:102B0000C0330610703406109A9999999999A93F83
:102B100000002041F4340610143406104833061027
:102B20007047C046F0B54E46DE4657464546E0B5CE
:102B3000C5B034AB9946E24B370008932EAB9846AC
:102B4000E04B0393E04B0C93E04B0B93E04B0D9366
:102B5000E04B0493E04B0A93E04B0193E04B10935E
:102B6000E04B1193E04B0693E04B0793E04B0E9341
:102B7000E04B0293E04B0F93E04B1D93E04B099326
:102B8000E04B1293E04B1393E04B1493E04B1593FF
:102B9000E04B1693E04B1793E04B1893E04B1993DF
:102BA000E04B1A93E04B1B93E04B1C93E04B1E93BE
:102BB000E04B1F93E04B2093E04B2193E04B2C9391
:102BC000E04B2D93E04B2293E04B2393E04B249377
:102BD000E04B2593E04B2693E04B2793E04B289363
:102BE000E04B2993E04B2A93E04B2B9300239B4629
:102BF0004B465A4608981A7001F01AFA002300252D
:102C00009A4600260DE0DA4A934200D123E1D94AE0
:102C1000934200D125E108235E460137BB4276414D
:102C2000F6B20120404201F035FA0400002E00D136
:102C3000F1E14346DC551B68CF4A9342E3D1002DB6
:102C4000E9D00398013D01F0F3F90120404201F081
:102C500021FA3E0004002300083BDBB2132B03D80B
:102C6000019A9B00D3589F4653463F2B00D885E1DD
:102C70000120404201F00EFA0400ECE72EAB0722DF
:102C80000021581C07F05AFF01201B2342464042F6
:102C9000137001F0FFF901270400CAE7099801F059
:102CA000C7F937004B4656465A469B191A70002EF4
:102CB0009EDD4B46202148469A55309307F062FF2F
:102CC000002800D17EE15B46202103700130319065
:102CD00007F058FF002800D181E15B4620210370F6
:102CE0000130329007F04EFF002800D179E15B46B9
:102CF00004240370013033904846149907F026FFEE
:102D0000002800D166E14846159907F01FFF00280A
:102D100000D16AE14846169907F018FF002800D153
:102D200065E14846179907F011FF002800D160E1DE
:102D30004846189907F00AFF002800D15BE1484691
:102D4000199907F003FF002800D158E148461A9965
:102D500007F0FCFE002800D14FE148461B9907F020
:102D6000F5FE002800D14EE148461C9907F0EEFE22
:102D7000002800D145E148461E9907F0E7FE0028EB
:102D800000D144E148461F9907F0E0FE002800D139
:102D90003BE14846209907F0D9FE002800D138E1F0
:102DA0004946219801F044F922E75346002B00D10F
:102DB0005EE70E9F05963C00903726684946300036
:102DC00007F021FF002803D03100029801F030F90C
:102DD0000C34BC42F1D149460F98059E01F028F908
:102DE000554500D144E753461D98591B01F020F981
:102DF0003EE7069801F01CF94946079801F018F9DA
:102E000036E7002D00D133E76B1E52461C00571EDB
:102E100005934C44BB4205D229002000521B494473
:102E200007F07AFE4B465A46DB191A70109801F0EB
:102E3000FFF8119801F0FCF82100049801F0F8F86F
:102E40000A9801F0F5F80120404201F023F9BA4652
:102E50000400059DFFE6554500D3DCE60C980135DE
:102E6000F1E643461B79002B00D0D4E6554500D34C
:102E7000D1E65346681C5E1E864207D95246A91CFD
:102E8000023A521B4944484407F046FE4B465A4614
:102E90009B191A700B9801F0CBF80D9801F0C8F847
:102EA0004B460498591901F0C3F80A9801F0C0F88C
:102EB0000120404201F0EEF8B24604003E00CAE6AE
:102EC000C0350610D4350610D8350610E435061086
:102ED000F0350610F4350610F8350610CC3E061015
:102EE0000436061010360610183606102036061066
:102EF000303F0610343606103C36061054360610A5
:102F00006C1F06105C360610603606106C36061014
:102F1000743606107C360610843606108C36061081
:102F200090360610943606109C360610A43606100D
:102F3000AC360610BC360610C4360610C83606106D
:102F40006526041081260410B526041051270410AC
:102F5000D12704103D28041091280410692A041078
:102F600081290410252A0410452A0410AD320410CA
:102F70001B5B43001B5B337E1B5B4400554532D219
:102F80005A1B4B466F1C5919D81907F0C5FD012271
:102F900094462B004A46E2444B4452441C7005932D
:102FA00013005A460B981A7001F042F805990498DC
:102FB00001F03EF8129801F03BF813983D0001F043
:102FC00037F855E648461499012407F0BFFD00285C
:102FD00000D098E62C9B200030A9984708E60224F0
:102FE0008AE6032488E66F1CD1E72D9BF3E7229B3A
:102FF000F1E7239BEFE7249BEDE7269BEBE7259B7F
:10300000E9E7289BE7E7279BE5E72A9BE3E7299B7E
:10301000E1E72B9BDFE73E001DE6C04670B5037B72
:1030200004000D00002B0AD061682C4801F000F864
:10303000237B042B4ED82A4A9B00D3589F4629480D
:1030400000F0F6FFF0E7284800F0F2FF216927487A
:1030500000F0EEFFA16A264800F0EAFF002D36D00E
:10306000A06906F075F8234905F082FD041C2800CC
:1030700006F06EF8011C201C05F0F6FB051C06F09E
:1030800005F8040006F020F8011C281C05F068FE75
:10309000194905F06DFD05F0F9FF0200174B2100FD
:1030A000180000F0C5FF164800F0C2FF70BD1548BB
:1030B00000F0BEFFCAE7144800F0BAFFC6E71348A5
:1030C00000F0B6FFC2E7124800F0B2FFBEE70022F0
:1030D0000024E3E70F4800F0ABFFB7E7FC3606102B
:1030E0001C3F0610F43606103437061064370610FD
:1030F0006C3706100000C8420000204178370610E7
:10310000843706104437061014370610243706108B
:103110000437061054370610F0B5CBB008AC02F0F7
:103120002BFE0621200001AA03F09CF802AD061E2A
:103130002ED0029401281ED013AB6B60022841D020
:103140001EAAAA60032809D029AAEA60042805D08B
:1031500034AA2A61052801D03FAA6A61A169626C7C
:10316000701E914235D36968AB688C699A69944244
:1031700021D3022832D14C4800F05AFF0024019993
:1031800001CD0134FFF74AFFA642F8D84BB0F0BD9D
:1031900002996A6888699469844256D8AB689F69C5
:1031A000A74219D96B60AA60B84215D201204042EB
:1031B00069600293DDE7A96002996B608C69A242A5
:1031C000D7D9F5E7A169626C9142D4D202936C60C1
:1031D000D1E702936C60C6E701204042AB68E96822
:1031E0009C698A6994424ED30328C4D0EB6829694C
:1031F0009C698A6994422DD30428BCD02A696969E4
:1032000090698B698342B6D9E8686A6182692961ED
:10321000934202D91A002861E960A968E8688B69BD
:10322000934202D21300E960A8606968A8688A69BD
:10323000934202D91A00A9606860029B6968986984
:10324000824298D96B60029195E7012002926960F1
:10325000404288E7AC682B61A369E9609A4202D9D1
:103260001300EC60A9606968AC688A69934202D96E
:103270001A00A9606C60029B69689C69A242BBD974
:103280006B600291B8E76C68EB60A369A9609A4231
:1032900002D91300AC606960029A69689469A3421C
:1032A000A2D96A6002919FE79037061070B50E4868
:1032B00000F0BEFE0D4E0E4D0E4C300000F0B8FE7C
:1032C000FFF72AFF280000F0B3FE200000F0B0FE58
:1032D000FA20800000F0DEFE0328EED1064800F060
:1032E000A7FE002070BDC046D0370610D8370610A4
:1032F000E4370610FC3706106C1F061010B507F0F7
:1033000099FC0C2303600120404210BD30B504003D
:10331000080085B02060200011001A00184B1C30F6
:103320001C6001F0FBF8099A0899201D01F0F6F8DD
:10333000032523000022002138330095012001F0ED
:1033400089F923000022606300218C33009501205D
:1033500001F080F988230021E050606B01F090FDBE
:103360000121082004F0A8F8064B03A81A8802805F
:103370009B78837004F092FC002005B030BDC046FD
:10338000741C0020841D061030B585B008AC25786B
:103390000191072A45D011D8052A46D00121062AD5
:1033A00008D101AC21716171012B0FD0022B3AD0F1
:1033B000002B0CD00120404205B030BD0321082A6B
:1033C000F8D101AC21716171012BEFD10223E371BE
:1033D000002D01D0012DEDD1436AA5715A1E9341F4
:1033E000C2685B002372002A02D0012213432372B9
:1033F0000023002063720133A37204F0DFF8200081
:1034000004F0EAF8062004F0DDF9002004F0CEF91B
:103410000121102004F08CF9012004F0CFF80020E5
:10342000CAE70221BDE70123D1E70021B9E7C04681
:10343000F0B5C64604000E001700002000B5002AB3
:1034400002D180BCB846F0BD81200021400104F0CB
:103450006FF90021606B01F013FD8120400104F041
:103460009FF90EE0002D28D0E36A226A1878013314
:10347000E362934201D3E369E362013D256304F013
:1034800063F9202004F070F9256B0028EAD00023AE
:103490009846002D11D0200031003A001C3001F078
:1034A00047F8236B05000121002B18D18020400133
:1034B00004F03EF928004044C3E7002505E0BD4282
:1034C00011D0705D04F040F90135202004F04CF972
:1034D000A84673190028F2D01E007F1BDBE72020CE
:1034E00004F026F9E6E700271E00D4E770B50500D2
:1034F0004B1C0BD0322200230800002104F062FF95
:10350000FA2200239200FCF7ADFE0100686B01F087
:10351000B7FC0400012802D00024200070BD02F096
:10352000E9FF082004F020F9002803D0002402F06D
:10353000EDFFF2E7002300220021686B01F0F0F8B4
:10354000F5E7C046F8B504000F0016000020002A79
:1035500000D1F8BD0021103004F0EAF83200390043
:10356000201D01F011F80500864206D822E004F083
:10357000F3F878550135AE421CD9102004F0F4F868
:103580000028F4D0102004F0EFF8A369002817D128
:10359000E2689A4214D004F0DFF8236918702369B6
:1035A000A26801332361934201D363682361A36955
:1035B0000133A361102004F0D7F8A3690028E7D0F5
:1035C000002B05D01020012104F0B2F82800C0E73C
:1035D00088330021E05801F053FCF3E770B5050093
:1035E0000C004B1C0BD0322200230800002104F0F9
:1035F000E9FEFA2200239200FCF734FE040088263C
:10360000002004F0DFF82100A85901F039FC01285E
:1036100004D0062004F0D6F8A86970BD002300226B
:103620000021A85901F07CF8F3E7C0463E4B10B5E5
:103630001C68002382B02020019304F0A7F8012821
:1036400013D08020400104F0A1F8012858D01020A8
:1036500004F09CF8012831D0019B002B03D080227C
:10366000324B52051A6002B010BD314B1B8F9B06C6
:10367000E7D51F3004F094F80EE0002A14D0E36A76
:10368000216A18780133E3628B4201D3E369E36274
:10369000013A226304F058F8202004F065F8226B08
:1036A0000028EAD0002ACCD10021202004F040F8E4
:1036B00080200121400104F03BF8C2E71C4B1B8F26
:1036C000DB06C9D50F3004F06BF80EE004F044F8C7
:1036D000236918702369A26801332361934201D3DF
:1036E00063682361A3690133A361102004F03CF8EF
:1036F0000028EBD0882301A9E05801F00FFAABE7CE
:1037000080220B4B52011B8F1342A0D0100004F0FB
:1037100047F880200021400104F00AF8606B01A9FD
:1037200001F0FCF993E7C046741C002004ED00E0B2
:10373000000030400D4B70B505000C0099420CD0D4
:103740000B4B99420FD180200121400103F0B4FEC0
:10375000002300202C606B6070BD802001210001DF
:1037600003F0AAFEF4E701204042F5E70000D04054
:103770000000E04070B504001A480D00002682B039
:103780000902814208D8FCF7EBFC80235B009842D9
:1037900025D845430138C6B229001248FCF7E0FCA1
:1037A0006060684604F064F880236D465B002B80FF
:1037B0000023AB70AB8063686946013B2068EB80F7
:1037C000EE7004F00DF801222068002104F062F888
:1037D0002068012104F052F8002002B070BD1800EA
:1037E000D7E7C0460048E80170B50C1C0600002170
:1037F000201CFCF70FFD00281CD10F49201CFCF7F2
:103800001DFD002800D00C4C7568280005F0A0FCB8
:10381000211C05F0ADF906F051FF0022074B05F021
:103820009DFF04F009FE33682D1AADB282B29A8072
:103830001D8170BD0024E7E70000C8420000594028
:10384000002203681A807047002310B501600371DD
:1038500080204000012103F02FFE002010BDC04653
:1038600000B583B000230171684603700133FF3354
:103870004380FE3B4170037104F022F8012004F004
:103880009DF8012004F086F8002003B000BDC0467A
:1038900070B505000424012004F05EF8042004F053
:1038A0009BF80028FAD0013C04F0DAF9002CF2D1A0
:1038B0002879022104F098F870BDC04610B507F0D1
:1038C000CEF910BD10B507F039F910BD10B507F0ED
:1038D00015F910BD084B1A68084B9A420AD13F23CC
:1038E000074A40061381000C2E3B90611380138A17
:1038F000DB07FCD57047C04614000020CCBCECFCB4
:1039000000001040084B1A68084B9A420AD13F2326
:10391000074A800813810C3B906111641380138A5D
:10392000DB07FCD57047C04614000020CCBCECFC83
:1039300000001040034B1B8A1840431E9841C0B240
:103940007047C04600001040C02380211B061A6843
:103950000A431A601A688A431A607047C02301211B
:103960001B061A680A431A601A688A431A6070476D
:10397000C0231B0618688007C00F7047054B1B78D3
:10398000002B05D1044B1868431E9841C0B2704704
:103990000120FCE7781C0020000400C0F0B5534B68
:1039A00091B01C006A46E0CCE0C2E0CCE0C260CC42
:1039B00060C22033E0CBE0C270CB70C230CB30C2EB
:1039C000012857D002281CD0032850D16A46202352
:1039D0004C1E551E03E0013B002B00D17CE0E05C57
:1039E000EA5C861A9042F6D0414B1A78002E00DB32
:1039F00074E0022082433F481A700C1D02003E4BC7
:103A000050E06A4620234C1E551E02E0013B002B6D
:103A10005CD0E05CEA5C861A9042F7D0344B1A78AE
:103A2000002E55DA012082431A700C1D4B0759D124
:103A3000324BCB18002B55D00C684D68304B1C60B6
:103A40005D60304B8C68CD681C605D602E4B0C69EE
:103A50004D691C605D602D4B8869C96918605960AB
:103A60002B4B2FE0224B1A7804210A431A700120B5
:103A700011B0F0BD1F2520234C1E6D4402E0013B18
:103A8000002BEFD0E05CEA5C861A9042F7D0184B2E
:103A90001A78002EE8DA042082431E481A700200C9
:103AA0001D4B0C1D0D680560206850608868906093
:103AB000C868D06008691061486950618869906180
:103AC000C969D161002200201A60D1E7084B1A7839
:103AD00001210A431A70CAE7054B1A7802210A43EA
:103AE0001A70C4E706480A4B0200DBE7881D06107F
:103AF000781C0020B40400C0D40400C074FBFF3F55
:103B0000900400C0980400C0A00400C0A80400C035
:103B1000B00400C06C0400C08C0400C0431E10B58B
:103B2000022B1DD8C200164B12189200D31888071A
:103B300018D114481018081A022813D91A680A60F4
:103B40005A684A609A688A60DA68CA601A690A61C3
:103B50005A694A619A698A61DB69CB61002010BDAC
:103B60000120FCE70800521A2030054C8B18A446AF
:103B700063441B780B7001318842F6D1EEE7C046F2
:103B8000480400C0490400C010B514F0C1FB10BDCA
:103B900010B511F0F1F810BD10B510F0A5FC10BD76
:103BA00010B510F0ABFF10BD70B584B06E466C461A
:103BB0006D46B68D248CAD8C03960A9E01950296B7
:103BC000009411F0CBF904B070BDC04670B584B05C
:103BD00008AC20CC0AAE2478367801940296009581
:103BE00011F0FCF804B070BD10B50AF0EFF910BD8B
:103BF00010B512F08DFC10BD0120704710B509F012
:103C0000C3FF10BD10B514F0F9FD10BD10B512F0D2
:103C100043FB10BD10B515F0BBFE10BD10B50AF08A
:103C2000ABF910BD10B50AF0AFF910BD10B50EF02C
:103C30006FFA10BD10B517F0E3FE10BD10B517F008
:103C400003FC10BD10B517F063FF10BD10B517F0E1
:103C500022FC10BD10B510F039F910BD10B510F0F0
:103C600045F910BD10B510F04DF910BD10B511F0AB
:103C7000CDFA10BD10B50EF021F810BD10B511F041
:103C800005FD10BD10B511F011FB10BD10B511F000
:103C90003FFC10BD0120704710B50DF0BBF810BD02
:103CA00010B51AF00BF810BD10B519F0DBFF10BD00
:103CB00010B519F0BFFF10BD10B51AF099F910BD7D
:103CC0000120704710B51AF019FA10BD10B51AF09E
:103CD000DBF910BD10B518F0D3FB10BD10B518F00E
:103CE000E9FB10BD10B518F063FC10BD10B518F05D
:103CF00059FB10BD10B518F06DFB10BD10B518F0D4
:103D00008BFB10BD10B518F0EBFB10BD10B518F013
:103D100001FC10BD10B517F0F3FB10BD10B517F086
:103D2000C3FB10BD10B517F0B3FF10BD10B517F0F1
:103D3000ABFE10BD70B504000DF050FA050002F0A6
:103D400091F901281CD072B602F08CF9002812D02B
:103D50001A4B19781A4B1A78022808D0022002F060
:103D600033FD184B1B78002B1CD162B670BD01309F
:103D700002F02AFDF9E762B603300DF053FAF5E7D9
:103D800002300DF04FFA6001001B80000019322153
:103D9000C000FCF7E5F9010003200DF028FA0DF052
:103DA000D3FAD0E70DF01AFA29000DF011FA142118
:103DB000FCF7D6F901F0E6FFD7E7C0467A1C0020F1
:103DC000791C00200C000020024B1870024B197067
:103DD0007047C0467A1C0020791C0020F0B5C6460A
:103DE00000B58AB004F0F0F9604C0120210000F029
:103DF000F5FD5F4B0121E6185E4B0027F0500120D6
:103E000003F05AFB04A803F0F7FA802304936B46EF
:103E100004A81F7503F00CFA80235B0104936B4622
:103E200004A81F7503F004FA4023062504936B468B
:103E300040201D7503F0F2FA04A803F0F9F9802080
:103E40006B46C0011D75049003F0E8FA04A803F066
:103E5000EFF92023984604936B4620201D7503F04C
:103E6000DDFA04A803F0E4F90F2304936B460F2056
:103E70001D7503F0D3FA04A803F0DAF910230493B4
:103E80006B4610201D7503F0C9FA04A803F0D0F9A1
:103E900080231B0104936B46053D04A81D7503F0A8
:103EA000C7F980235B0004936B4604A81D7503F0DB
:103EB000BFF9314B03A81A88013502809B788370C3
:103EC00003F0ECFE8022002306A8069207930895D3
:103ED00003F0B0FA80220023520106A8069207934D
:103EE000089503F0A7FA8420400103F0D9FA842052
:103EF0000121400103F0C8FA4146019121008023CD
:103F00001E4A2439A218009130001D49DB00FFF73A
:103F1000FDF92500E12100230822503530000097EB
:103F20004902FFF731FA28001649FFF703FC642124
:103F30002800FFF71FFC812160342000C905FFF72E
:103F400083FC02212000FFF78BFC0121802003F07D
:103F5000B3FA0D4803F090FE03F094FE0821082008
:103F6000FFF732FF0AB080BCB846F0BD182A002027
:103F700000FBFFFFFC040000C81D0610DCFBFFFF78
:103F8000000030400000D040FD7F0700014B024A96
:103F90009854704718250020690500000FB4F0B54B
:103FA000144B154D0024EB5C83B0002B05D1200091
:103FB00003B0F0BC08BC04B0184701210F4E09AF94
:103FC000A8594942019700F05BFF80210C4C3B004F
:103FD000089A2000490006F085FD21000200280013
:103FE000FFF726FA0023040000220021A85900F060
:103FF00097FBDCE76905000018250020FC040000A1
:104000007C1C002010B50748FFF7C8FF012001F015
:10401000EFFDBFF34F8F044B044ADA60BFF34F8FBD
:10402000FEE7C046E839061000ED00E00400FA059E
:104030000FB4F0B5C646012100B582B0124C08AEEF
:10404000124F08CEE05949429846019600F018FFF9
:1040500080210F4D330042462800490006F042FD02
:10406000290002002000FFF7E3F9050000230022E9
:104070000021E05900F054FB280002B080BCB84693
:10408000F0BC08BC04B0184718250020FC04000050
:104090007C1C002070B582B06B46DD1D00230D4CEA
:1040A000010020002B70FFF799FA01210A4E4942C6
:1040B000A05900F0E5FE290001222000FFF742FA96
:1040C000002300220021A05900F02AFB287802B02A
:1040D00070BDC04618250020FC040000F0B5C6469F
:1040E000AB2600B5504CF60082B0A75D0500A05588
:1040F0000F2003F093F94D4B4D49E358181C984697
:1041000004F02EFE06F0DAFA4A4A4B4B05F0ACFDFD
:1041100006F016FB07F0ACFE06F0D0FA474A484B13
:1041200005F0A2FD0022474B05F09EFD464B474A95
:1041300005F0C0FF06F004FBA35D011C082B03D0B3
:104140003B4804F00DFE011CAA23DB00E018FFF73A
:104150004BFB4246354BE250043BE35CBB4204D090
:10416000AA23DB00E018FFF76BFB082D58D8384B6B
:10417000AD005B599F46012003F04CF9042003F089
:1041800049F9022003F046F9002F0FD1684603F0E9
:1041900033F910236A4600930B3B6846137103F012
:1041A00047F8202003F02EF900280CD002B080BC84
:1041B000B846F0BD012003F02DF9042003F02AF9E0
:1041C000002FE3D0F2E70121202003F02BF9052096
:1041D00001F00EFDEAE7082003F01CF9002FD5D00E
:1041E000E4E70021202003F01DF9684603F004F9FC
:1041F00010236A4600930A3B6846137103F018F8CF
:10420000D4E7012003F006F9002FBFD0CEE701204C
:1042100003F000F9022003F0FDF8002FB6D0C5E747
:10422000002FC3D1B2E7C046182500205C0500006E
:104230000000C8429A9999999999A93FD2847F2DF3
:10424000C91BF03F000059402BB5E53FE1C39F8BF0
:10425000C03F0610AB22024BD200985C7047C046AC
:104260001825002070B51849041C04F079FD06F0EB
:1042700025FA164A164B05F0F7FC06F061FA07F02E
:10428000F7FD06F01BFA134A134B05F0EDFC002274
:10429000124B05F0E9FC124B124A05F00BFF06F039
:1042A0004FFAAB23104DDB00EB5C011C082B03D055
:1042B000054804F055FD011CAA23DB00E818FFF7B0
:1042C00093FA0A4BEC5070BD0000C8429A99999934
:1042D0009999A93FD2847F2DC91BF03F0000594016
:1042E0002BB5E53FE1C39F8B182500205C0500003E
:1042F00070B5202003F086F8002826D01B4C022140
:104300002000FFF7ADFA2000FFF7C2FA184B051C9A
:104310009C46AB236444DB00E35C002B10D02020E0
:1043200003F070F8002818D0281C124904F020FC73
:10433000114904F099FA011C0E4804F011FD70BDFA
:104340000021202003F06EF8EEE70121203003F079
:1043500069F8052001F04CFCD0E70121203003F082
:1043600061F8052001F044FCDEE7C046782A002011
:10437000A0FAFFFF0000C8423333534010B582B0AB
:104380006A46084B03CB03C2402003F047F8684657
:1043900002F04EFFAD220121034BD200995402B02E
:1043A00010BDC046CC1D061018250020402310B5B6
:1043B00082B06A460024009300236846938094717B
:1043C00002F036FFAD22024BD2009C5402B010BD69
:1043D0001825002010B582B06A460E4B6C4603CB00
:1043E00003C2684602F024FF402003F013F80720C0
:1043F00001F0FEFB402003F011F8AD22064BD20085
:104400009B5C002B01D002B010BD6846237102F006
:104410000FFFF8E7CC1D061018250020802010B5EE
:10442000400102F0EFFF013843425841C0B210BDD5
:104430008022012300B585B05201029068460092A7
:10444000019302F0F7FF05B000BDC04600B5802023
:1044500085B003F029F8012807D08020400103F03F
:1044600023F8012815D005B000BD7F3003F018F8FF
:1044700069460020FCF726FC009B002BEDD0802233
:104480008020144B52051A60400103F00DF80128FA
:10449000E9D18020400102F0B5FF802201235201C2
:1044A000013800920193431E98410290684602F041
:1044B000C1FF8020400102F0F3FF69460120FCF7B4
:1044C00001FC009B002BCED08022024B52051A60CB
:1044D000C9E7C04604ED00E010B50E4803F0CCFB80
:1044E00001F044FC952801D8012010BD0A4C0021A0
:1044F0002000FEF7FBFF0028F6D08020400102F0EC
:1045000081FF0128F0D0AB23DB00E35C002BEBD173
:104510000320EAE7FD7F07001825002000238260C2
:104520008A1801604260C160016143617047C04602
:10453000F0B5C6468568436904000E0000B5ED1A63
:10454000954200D91500E06867683F1ABD420DD258
:104550002A00310006F083FBE268521963692800E3
:104560005B19E260636180BCB846F0BD3A0031007F
:1045700006F075FBEB1B98461A002068F11906F04F
:104580006EFB22684244E9E7F0B5C646456904007F
:104590000E0000B5954200D91500216967687F1AA1
:1045A000BD420DD22A00300006F059FB2269521993
:1045B000636928005B1B2261636180BCB846F0BD63
:1045C0003A00300006F04BFBEB1B98461A002168BE
:1045D000F01906F044FB22684244E9E770B5160082
:1045E000026C0400856B002A06D1066801350020A4
:1045F000002E25D0A56370BD002E0ED1406806F0B8
:104600002EFB6368226C01359B18A268636093429D
:1046100001D3236863600020ECE7C06806F01FFB4D
:10462000226CE36851429B1A2268E360934202D2F3
:10463000A3685B18E360022E07D000200135D9E79C
:10464000A06801F081FDA660D4E7002DF5D0002020
:10465000D0E7C04670B582B01C006B461D7E002CB2
:104660000ED000280AD0002A0CD0002906D05023F2
:104670000193019B502B3CD072B6FEE772B6FEE769
:1046800072B6FEE70029F9D150230193019B502B0C
:10469000F2D12200019B46230126E6542260E0630A
:1046A0002164020C0B0C002A35D1002B23D101F020
:1046B00021FF216CE36B22684B43D018A0600020DF
:1046C0005B1A6260D218E260FF234422A0632000DC
:1046D000A3540132A354103002F03CF820002430DF
:1046E00002F038F801F012FF4C232000E55402B02C
:1046F00070BD019BCFE784461A1C89B20B0061464E
:1047000080B2434389B292B24A431B0CD3181B0CAC
:10471000CDD072B6FEE7002BFBD18C46EDE7C0464C
:10472000F0B5CE46474680B585B0041E884699460A
:10473000019200D102E1002900D19DE04B46022BFD
:1047400000D19FE001F0D6FEA26BE36B9A427FD3CB
:104750004A460023022A7BD026002436019A002AEA
:1047600000D1F5E0002B00D1E4E001F0CFFE01F034
:10477000E7FA01F0BFFE4422A35C5BB2013301D132
:104780000023A3544522A35C5BB2013301D1002373
:10479000A35401F0BBFE01A902A801F027FC0028E8
:1047A00000D0D9E001F0A6FEA26BE36B9A4200D1E3
:1047B0006EE001F0ABFE01F09DFE4523E55C6DB2BD
:1047C000002D05DC13E0013DEBB26DB2002B0ED0E5
:1047D000636A002B0BD0300001F074FB0028F2D08C
:1047E000013D01F039FCEBB26DB2002BF0D1452355
:1047F000FF22E25401F08AFE01F07CFE4423E55CD6
:104800006DB2002D16DD2700103704E0013DEBB23C
:104810006DB2002B0ED02369002B0BD0380001F0B5
:1048200051FB0028F2D0013D01F016FCEBB26DB255
:10483000002BF0D14423FF22E25401F067FE01F087
:1048400087FA01F057FEA16BE26B0123914285D2FA
:104850004A4641462000FFF7C1FE636A002B00D0A4
:1048600071E0002800D06BE001F050FE012005B09F
:10487000C0BCB946B046F0BD036C002B00D15DE76B
:1048800072B6FEE7E36B012B00D15BE772B6FEE781
:104890002700103701F03AFE3800019901F0C2FA02
:1048A00001F028FE4523E55C6DB2002D05DC13E028
:1048B000013DEAB26DB2002A0ED0636A002B0BD024
:1048C000300001F0FFFA0028F2D0013D01F0C4FBF6
:1048D000EAB26DB2002AF0D14523FF22E25401F082
:1048E00015FE01F007FE4423E55C6DB2002D05DCEA
:1048F00013E0013DEAB26DB2002A0ED02369002B0D
:104900000BD0380001F0DEFA0028F2D0013D01F0B2
:10491000A3FBEAB26DB2002AF0D14423FF22E25495
:1049200001F0F4FD01F014FA002800D089E701F04D
:10493000D5FD86E702A801F04DFB16E772B6FEE74B
:1049400001F0CCFD90E72000243001F0BBFA88E7AD
:1049500001F0DCFD00208AE701F0CCFD4523E55C99
:104960006DB2002D12DD2600243604E0013DEAB2CE
:104970006DB2002A0AD0636A002B07D0300001F024
:10498000A1FA0028F2D001F067FBEFE74523FF22F0
:10499000E25401F0BBFD01F0ADFD4423E55C6DB2D6
:1049A000002D12DD2600103604E0013DEAB26DB2A2
:1049B000002A0AD02369002B07D0300001F082FAC8
:1049C0000028F2D001F048FBEFE74423FF22E25435
:1049D00001F09CFD01F0BCF9002048E770B505002E
:1049E0000C0082B0002938D050230193019B502B3A
:1049F00001D072B6FEE700264622019B01238B54AC
:104A00002160CB630E6401F075FD216CE36B2268BD
:104A10004B43D0185B1A6260D218E260FF23442235
:104A2000A0602000A663A3540132A354103001F00B
:104A300091FE2000243001F08DFE01F067FD4C2333
:104A40000022E554002100232000A6602660E660D5
:104A5000FFF766FE200002B070BD72B6FEE7C046EA
:104A6000F0B54F464646D6460400C0B51D000F00BF
:104A70001600002837D0002918D0022D04D1E36B8E
:104A8000012B18D072B6FEE701F022FE0021A26BC6
:104A9000E36B804689469A4211D3404601F01CFEE2
:104AA0004846E0BCBA46B146A846F0BD036C002BB0
:104AB000E3D072B6FEE701F00BFE8046A36B452300
:104AC0009A46E35C2A005BB2994639002000A36B4A
:104AD000FFF784FD4B46013307D1636A002B12D1E7
:104AE00001239946D9E772B6FEE701F045F9814501
:104AF000F6D24B467F2B04D0524601335BB2A3540F
:104B0000EEE772B6FEE72000243001F0DBF9002862
:104B1000E6D0002EE4D001233360E1E7F0B5C646CD
:104B200004000D0000B500281BD0036C002B01D041
:104B300072B6FEE70368002B15D001F0C9FDA36B28
:104B4000E26B06009A4213D94522A75C01337FB27B
:104B50009046A3637B1C13D1636A002B1CD10124F4
:104B600007E072B6FEE78368002BE6D072B6FEE778
:104B70000024300001F0B0FD200080BCB846F0BD3C
:104B800001F0FAF88742EAD27F2F11D0434601376D
:104B90007FB2E7540124ECE72000243001F092F9C1
:104BA0000028DCD0002DDAD0012301242B60E0E7BF
:104BB00072B6FEE7F0B54746CE4680B585B0041E16
:104BC0008846019200D138E1002900D12FE101F09F
:104BD00091FCA56B002D00D031E1019B002B00D191
:104BE000D0E0260002A801F0F5F94427243601F0B0
:104BF0008DFC01F0A5F801F07DFCE35D5BB20133B3
:104C000001D10023E3554522A35C5BB2013301D1FE
:104C10000023A35401F07AFC01A902A801F0E6F9EF
:104C200000285AD101F066FCA36B002B00D0B1E044
:104C300001F06CFC24239946A1444846019901F0F7
:104C4000F1F801F057FC4523E55C6DB2002D05DC61
:104C500013E0013DEAB26DB2002A0ED0636A002B68
:104C60000BD0484601F02EF90028F2D0013D01F0AA
:104C7000F3F9EAB26DB2002AF0D14523FF22E254E3
:104C800001F044FC01F036FC4423E55C343B9946DA
:104C90006DB2A144002D05DC13E0013DEAB26DB216
:104CA000002A0ED02369002B0BD0484601F00AF9E8
:104CB0000028F2D0013D01F0CFF9EAB26DB2002A2E
:104CC000F0D14423FF22E25401F020FC01F040F82F
:104CD00000284ED101F002FC4BE001F00BFC452313
:104CE000E55C6DB2002D05DC13E0013DEAB26DB26A
:104CF000002A0ED0636A002B0BD0300001F0E2F8DE
:104D00000028F2D0013D01F0A7F9EAB26DB2002A05
:104D1000F0D14523FF22E25401F0F8FB01F0EAFB59
:104D200010239946E55DA1446DB2002D05DC13E02A
:104D3000013DEAB26DB2002A0ED02369002B0BD0E0
:104D4000484601F0BFF80028F2D0013D01F084F997
:104D5000EAB26DB2002AF0D1FF23E35501F0D6FB91
:104D600000F0F6FF01F0C6FBA36B002B0AD001F0A8
:104D7000CDFB01F0BFFBA56B002D60D1019B002B8B
:104D800000D034E701F0C2FB002005B0C0BCB9463A
:104D9000B046F0BD01F0BAFB01F0ACFB4523E55C89
:104DA000213B99466DB2A144002D05DC13E0013D85
:104DB000EAB26DB2002A0ED0636A002B0BD04846CF
:104DC00001F080F80028F2D0013D01F045F9EAB287
:104DD0006DB2002AF0D14523FF22E25401F096FB88
:104DE00001F088FB4423E55C343B99466DB2A14455
:104DF000002D05DC13E0013DEAB26DB2002A0ED0B1
:104E00002369002B0BD0484601F05CF80028F2D053
:104E1000013D01F021F9EAB26DB2002AF0D144233C
:104E2000FF22E25401F072FB00F092FFA1E7036C55
:104E3000002B00D1CBE672B6FEE772B6FEE7226C1D
:104E4000002A0AD0E168A3688918E160994201D379
:104E50002168E160404605F002FF2369013DA5633A
:104E6000002B03D101F052FB01208EE7200010300F
:104E700001F028F80028F5D001F030FBF2E7C04639
:104E8000F0B5CE46474680B585B0041E019100D1ED
:104E9000EFE0036C002B00D094E001F02BFBA36B40
:104EA000002B00D053E1019B002B00D13EE102A872
:104EB00001F090F80023260098464427243601F09C
:104EC00025FB00F03DFF01F015FBE35D5BB2013314
:104ED00001D10023E3554522A35C5BB2013301D12C
:104EE0000023A35401F012FB01A902A801F07EF8EF
:104EF000002869D101F0FEFAA36B002B00D0BDE0C1
:104F000001F004FB2368002B00D117E1242399460C
:104F1000A1444846019900F085FF01F0EBFA4523D2
:104F2000E55C6DB2002D05DC13E0013DEAB26DB227
:104F3000002A0ED0636A002B0BD0484600F0C2FF57
:104F40000028F2D0013D01F087F8EAB26DB2002AE4
:104F5000F0D14523FF22E25401F0D8FA01F0CAFA59
:104F60004423E55C6DB2002D17DD343B9946A14426
:104F700004E0013DEAB26DB2002A0ED02369002B95
:104F80000BD0484600F09EFF0028F2D0013D01F012
:104F900063F8EAB26DB2002AF0D14423FF22E25452
:104FA00001F0B4FA00F0D4FE002800D1B3E001F023
:104FB000A1FAA36B002B00D0C9E0019B002B00D00D
:104FC0007DE7B3E072B6FEE701F094FA4523E55CB5
:104FD0006DB2002D05DC13E0013DEAB26DB2002A8E
:104FE0000ED0636A002B0BD0300000F06BFF00285E
:104FF000F2D0013D01F030F8EAB26DB2002AF0D1F2
:105000004523FF22E25401F081FA01F073FAE55DD5
:105010006DB2002D17DD10239946A14404E0013D37
:10502000EAB26DB2002A0ED02369002B0BD048469D
:1050300000F048FF0028F2D0013D01F00DF8EAB27F
:105040006DB2002AF0D1FF23E35501F05FFA00F0C2
:105050007FFE01F04FFAA36B002B0CD101F056FA42
:105060004346002B5AD1002005B0C0BCB946B0461B
:10507000F0BD72B6FEE701F049FA98E701F046FA92
:1050800001F038FA4523E55C6DB2002D17DD213BB8
:105090009946A14404E0013DEAB26DB2002A0ED067
:1050A000636A002B0BD0484600F00CFF0028F2D0BA
:1050B000013D00F0D1FFEAB26DB2002AF0D14523E4
:1050C000FF22E25401F022FA01F014FA4423E55CD5
:1050D0006DB2002D17DD343B9946A14404E0013D3B
:1050E000EAB26DB2002A0ED02369002B0BD04846DD
:1050F00000F0E8FE0028F2D0013D00F0ADFFEAB27A
:105100006DB2002AF0D14423FF22E25401F0FEF9EF
:1051100000F01EFE4BE701F0E1F948E701F0EAF983
:10512000616A002905D1A06801F04CF801F0EEF9A0
:1051300099E70421236B1B68C91AF4E701F0DAF937
:10514000A06800F0B7FF804601F0E0F9DEE6013B21
:10515000A3632368002B0FD02369002B03D101F038
:10516000D5F9012080E72000103000F0ABFE0028C8
:10517000F5D001F0B3F9F2E701F06AF8A060EBE7CF
:10518000F0B5C64600B5040001F0B4F9384A394E0E
:105190001368013313603368002B35D0364BE26A55
:1051A00098461B68002B29D0344D35490B680133D4
:1051B0000B60A364334B1968914200D21A609300CC
:1051C0009B189B00E9184A689068A260844667466D
:1051D000E060201D78609060EA5861610132EA5019
:1051E00001F094F943461B68002B04D03368DA6A57
:1051F000E36A9A4211D380BCB846F0BD3368DB6ADB
:105200009342D1D83460CFE734601368012B07D0C4
:10521000194BE26A9846194DC7E701F05FF9EAE7D2
:10522000164D280001F096FA2800143001F092FA89
:105230002800283001F08EFA28003C3001F08AFA6C
:10524000114B9846180001F085FA104F380001F014
:1052500081FA0F4801F07EFA0E4801F07BFA4246CF
:105260000D4B1A600D4BE26A1F60034B98469CE79A
:1052700010220020BC220020042200206C220020EA
:10528000F42100200822002058220020442200207F
:105290002822002014220020402200203C2200204E
:1052A00000222C4B70B51A600BF098FF2A4B2B4A4A
:1052B0001B68C01A2A4B186019681068814239D8D7
:1052C000284C1B68284D13602A68284993009818B9
:1052D0008000085800281ED1002A33D0501E8300B9
:1052E0001E18B6008E59002E31D100282AD0901EEB
:1052F00083001E18B6008E59002E28D1002821D018
:10530000D01E83001E18B6008E59002E1FD1043AFD
:105310009300002816D09B189B00CE1870680833A5
:105320004068C918706088420ED0C36823602A6044
:10533000236870BD0B4C1E682568A96D091A891970
:10534000A965BEE772B6FEE7F0687060EDE702009F
:10535000E1E7C046FC210020E0210020E8210020F8
:10536000E4210020BC220020082200206C22002022
:10537000F8B55746DE464E464546E0B50F68002F65
:105380003FD008239946CE688944B1454DD0284B7B
:105390000400984602239B46264B00279A46F56850
:1053A000002D35D02B00296B34336360EB6AE1614B
:1053B00023612B68256023626B6C6362AB6CA36016
:1053C0002B6D6361AB6DA36143461B689D4222D088
:1053D0005B46237301F08EF8AB6A534522D001F08F
:1053E00095F8296B0B78A52B1AD100230133CA5CE1
:1053F000A52AFBD09B087668A36201372C34B145FF
:10540000CDD13800F0BCBB46B246A946A046F8BD97
:1054100043461D68C6E7002323730B78A52BE4D011
:105420000023E8E701232373D9E70027E9E7C04613
:10543000BC22002028220020F0B5DE4657464E460A
:1054400045465B4BE0B51A6883B0013294461A605A
:10545000002A5FD057490B689C4562D3564B99464A
:105460001B681B68002B00D19CE000239846534B1F
:10547000534E9B46534B01919A4639E000215961A6
:105480001168013911609A6A002A0ED0D969186A28
:10549000556888604160190018318D4200D171E073
:1054A000002199621168013911605246D96A126867
:1054B000914201D9524611608A0052189200B518E3
:1054C000686887689860DF607C6084605D61B3585D
:1054D0000133B3505B461B684246DB6A8B429B41FB
:1054E0005B421A434B461B6890461B68002B54D006
:1054F0004B461B68DB68DB685A6894454AD35A6997
:105500009868D9681C1D816048605068A042B5D178
:105510005160B3E7284B1A681268002A20D072B68F
:10552000FEE700239846254B254E9B465B4601200F
:105530001B68254AD96A12688B005B189B00F358D8
:105540009842804113005A1E9341404218434346FB
:10555000184303B0F0BCBB46B246A946A046F0BD16
:105560001A4A196810681860116019490A680132EE
:105570000A601A681268002A06D101230D495B42AD
:105580000B6068E750608BE71B680A49DB681B68A3
:105590000B6060E701990A60C8E7019901235B424B
:1055A0000B60C3E79846054B054E9B46F6E7C046A1
:1055B0000C220020F021002040220020BC220020EC
:1055C0006C22002008220020FC2100203C22002028
:1055D000F8210020F0B5DE4657464E464546544C6D
:1055E000E0B5236883B0013B23602368002B00D023
:1055F00081E0504B1B68002B7DD04F4B9C461B68B5
:10560000002B00D190E04D4B4D4D98464D4B0194F1
:1056100099464D4B9A4600239B466346DB68DB6800
:10562000D869196A9A6A816048601800566818300B
:10563000864200D172E059469962116801391160C1
:105640005A699868D968566881604860181D864212
:1056500062D01168013911604146DA6A09688A42EC
:1056600001D941460A60910089188C002E19716891
:105670008F689960DF60786088605E612B590133C4
:105680002B514B461B68DB6A9A423FD95346012295
:105690001A6063461B68002BBFD12C4B019C1A6813
:1056A0001268002A3CD01B68DB681A68284B1A6015
:1056B000284E3568002D14D0012708E0FFF7BCFE06
:1056C000002801D053461F60013D002D08D02368FB
:1056D000002BF3D03368013D01333360002DF6D148
:1056E000356053461B68002B05D0164B01241B6800
:1056F00000F0F4FE00E0002400F008FF200003B0FA
:10570000F0BCBB46B246A946A046F0BD63461B6846
:10571000002B00D081E7C0E751609AE751608AE72B
:105720000B4B013A1A60C3E7074B9A46C0E7C046E5
:10573000EC21002010220020282200200822002036
:105740006C220020BC220020FC21002040220020EE
:10575000F021002000220020404BF0B5D6469A46AA
:105760003F4B4F46464699463E4BC0B598463E4F46
:105770003E4C3F4D3E68012E18D82368002B4BD17C
:105780002B68DB6A002B1AD03A682368002B41D1C2
:105790002B68DB6A002BF8D1012A1DD92368002B66
:1057A00038D12B68DB6A002BEFD1F7E700F096FECB
:1057B0002368002B32D12B68DB6A002BDAD13B68DF
:1057C000012B41D9012EDFD9D4E72368002B21D149
:1057D0002B68DB6A002BD8D1534649461B68096801
:1057E0005B1A012BF1D9434642461B680133136013
:1057F00053461A684B461B689A422DD32368002BE8
:1058000011D02B6800F076FE43461B68002B07D1B1
:1058100072B6FEE72B68B8E72B68B5E72B68A9E7F7
:10582000FFF7D8FEA6E72B68DB6A002BEAD13B68BE
:10583000012BE7D8534618684B461B68C01A01284D
:10584000E0D9FEF777FADDE753464A461B6812684F
:105850009B1A012BC7D8B5E772B6FEE7F0210020EE
:105860000C220020EC2100206C22002008220020C5
:10587000BC220020F8B5CE46474604000D0080B596
:10588000414B002830D02100343120686960E16A42
:105890002C602961216B2862606CE9616862A06CF0
:1058A000A860206D6861A06DA861052A31D01B68D1
:1058B0009C421BD02A73032A1BD000F01BFE334BE3
:1058C000A26A9A424DD000F021FE216B0B78A52BE5
:1058D0004DD100230133CA5CA52AFBD09B08AB62E3
:1058E000C0BCB946B046F8BD1C68CCE700232B739A
:1058F000ECE7274E336801333360A36A002B3BD0BB
:1059000002232B7300F0F6FD3368002B2CD172B606
:10591000FEE71A680023944221D000F0EBFD1D4BF6
:1059200066691B68A76A98461B4B1B68994600F07E
:10593000EDFD164B216B9F4223D0464519D04E45B5
:1059400017D0164A0123964209D1A26A0133002AD0
:1059500005D15E33E35C013B5A1E934102332B7346
:10596000B4E701232B73AEE7FFF734FEA5E700236E
:10597000B5E702232B73A9E76023E35C012BBFD0BB
:10598000C0E701232B73A1E7BC22002028220020BE
:10599000EC210020402200203C2200201422002084
:1059A000F0B54746CE4680B583B098460B9B0700BE
:1059B0000D0014000C9E002B0AD0002E06D064238C
:1059C0000193019B642B05D072B6FEE772B6FEE729
:1059D00072B6FEE7642200213000019B05F0AEF8AC
:1059E0000B9B022233636123A400F254A521220001
:1059F0000B9805F0A3F8336B043C1C1907239C4358
:105A00007464002D4BD034222B78B354002B43D038
:105A10006B780132B354002B3ED0AB780132B354D3
:105A2000002B39D0EB780132B354002B34D02B79D2
:105A30000132B354002B2FD06B790132B354002BB9
:105A40002AD0AB790132B354002B25D0EB79013247
:105A5000B354002B20D02B7A0132B354002B1BD02F
:105A60006B7A0132B354002B16D0AB7A0132B354A7
:105A7000002B11D0EB7A0132B354002B0CD02B7BCE
:105A80000132B354002B07D06B7B0132B354002B8F
:105A900002D04223AA7BF25443230022F2540A9BF1
:105AA000032B01D972B6FEE7351DF362336528007A
:105AB00000F05CFE3000183000F058FE04230A9A13
:105AC00039009B1AB361424620003661766200F0CD
:105AD0004BFD306000F00EFD394B3A4F1A68013231
