:020000041004E6
:1000000000600020B97D0410A17C041011040410CC
:10001000AA5555AA45554C420000000000000000BA
:10002000000000000000000000000000A1660410B5
:10003000000000000000000051660410A5640410D8
:10004000C5430410A57C041000000000000000005F
:10005000A5350410A97C0410ED0F0410C17C041018
:100060000000000000000000000000000000000090
:1000700000000000C57C0410C97C0410CD7C041075
:1000800000000000AD7C0410B17C0410B57C0410AD
:10009000B97C0410BD7C0410D57C0410D17C041004
:1000A0000000000000000000000000000000000050
:1000B0000000000000000000000000000000000040
:1000C000EFF31482EFF309811C4880F31488BFF327
:1000D0006F8FF0B543464C4655465E466746F8B4CA
:1000E000174CEFF30883236006B4164C2068164CB7
:1000F0002060164C2068164C2060164C2068164C68
:100100002060164C276800202060BFF34F8F30BF5F
:1001100027600B4C246884F3088882B003BCF8BCC9
:100120009846A146AA46B346BC46F0BC04BC80F340
:10013000098881F31488BFF36F8F10470000000017
:100140000800002004ED00E06C23002024ED00E016
:100150006823002000E200E0642300200800204023
:10016000002934D00123002210B488422CD301246A
:100170002407A14204D2814202D209011B01F8E7FF
:10018000E400A14204D2814202D249005B00F8E7B8
:10019000884201D3401A1A434C08A04202D3001BE4
:1001A0005C0822438C08A04202D3001B9C08224317
:1001B000CC08A04202D3001BDC082243002803D055
:1001C0001B0901D00909E3E7100010BC704701B515
:1001D000002000F00BF802BD0029F8D003B5FFF7AE
:1001E000C1FF0EBC4243891A1847C0467047C0463B
:1001F000844608006146FFE71FB508F0FCFB0028B5
:1002000001D40021C8421FBD10B508F091FB404247
:10021000013010BD10B508F0EEFB002801DB002016
:1002200010BD012010BDC04610B508F0E4FB002849
:1002300001DD002010BD012010BDC04610B508F042
:100240009CFB002801DC002010BD012010BDC04631
:1002500010B508F092FB002801DA002010BD012043
:1002600010BDC046002B11D1002A0FD1002900D1AA
:10027000002802D00021C943080007B4024802A1A7
:100280004018029003BDC04665FFFFFF03B46846F7
:1002900001B5029808F06EF8019B9E4602B00CBCB6
:1002A0007047C04602B4714649084900095C4900DC
:1002B0008E4402BC7047C04603B4714649084000F2
:1002C0004900095A49008E4403BC7047D0400B00D6
:1002D000D1409C46203AD340184352426346934053
:1002E000184370479140030090409C46203A934049
:1002F000194352426346D340194370478446100065
:1003000062468C461900634600E0C0461FB50AF0FD
:10031000AFFA002801D40021C8421FBD10B50AF071
:1003200001FA4042013010BD10B50AF0A1FA0028D0
:1003300001DB002010BD012010BDC04610B50AF041
:1003400097FA002801DD002010BD012010BDC04635
:1003500010B50AF029FA002801DC002010BD0120A8
:1003600010BDC04610B50AF01FFA002801DA0020BF
:1003700010BD012010BDC0461C2101231B04984262
:1003800001D3000C10391B0A984201D3000A083926
:100390001B09984201D30009043902A2105C4018DD
:1003A0007047C04604030202010101010000000081
:1003B0000000000010B5002903D1FFF7DDFF203059
:1003C00002E00800FFF7D8FF10BDC0460023C25C62
:1003D0000133002AFBD1581E7047000003B4714658
:1003E000490840004900095E49008E4403BC70473B
:1003F00010B503F0AFFC054803F0D6FD00F00EF891
:1004000000F016F805F0FEFBFEE7C046CC1C061017
:10041000802010B5C00106F0B5FFFEE710B500F072
:1004200099F802F039FB01F0B1FE00F079FF10BD40
:1004300010B51B4B84B002931A4B80220193022308
:100440001949009352000023184805F065FA012469
:10045000C022174B17490293174B00940193520087
:100460000023164805F058FA8022154B15490293CF
:10047000154B0094019352000023144805F04CFAE8
:10048000134BC0220293134B1349019303235200D1
:1004900000931248002305F03FFA04B010BDC04697
:1004A0004018002040140020FC1C0610010A041013
:1004B000DC130020001D0610DC0D00209D2A041016
:1004C000780D0020081D0610780900202124041052
:1004D0001409002014030020101D0610E11604105A
:1004E00070B5040001E005F0B5FF00F01DFC182810
:1004F000F9D900F061FD7D2003F0A8F901E005F0D5
:10050000A9FF012003F0D2F90128F8D1260000F05C
:100510005FFD1C360E4D01E005F09CFF00F004FC71
:100520000028F9D000F048FD2800216803F0A6F962
:1005300001E005F08FFF012003F0B8F90128F8D1A0
:10054000043400F045FD0435B442E7D170BDC04627
:1005500000E8071030B5204C0025220083B02300AE
:10056000202150320820009504F030F8AA22AC2156
:10057000043C5200A552563AFF3A490062500C31F1
:1005800062500C316550043162501031206062506D
:10059000124C2378002B0ED12378002B0BD010485F
:1005A000FFF79EFF0F4803F0B5FC2078C0B203F0C0
:1005B000A9FC03B030BD62680B4B9A42EFD8A0682B
:1005C0000021FFF745FE0028E9D0A0680749FFF7A2
:1005D0002BFE0028E9D1E2E7A818002000E8071068
:1005E000F8380610141D06103F420F000000C842E4
:1005F000022310B588B00093094B01AA13CB13C294
:1006000013CB13C21B68694613600122054B52428B
:100610001868002304F040F8002008B010BDC04660
:10062000F8380610A4180020014B98687047C0469F
:1006300000E8071070B500218AB0051C0190FFF793
:1006400007FE00282BD01749281CFFF7EDFD0028D6
:1006500025D0154C281CA168FFF7D6FD002802D034
:1006600000200AB070BD0223029303AB45CC45C302
:1006700045CC45C3226802A91A6001220B4B5242A5
:1006800018680023CD6004F007F800F03DFB002857
:10069000E6D1042201A9043000F0A4FBE0E7012028
:1006A0004042DEE70000C84200E80710A41800201E
:1006B000014B58687047C04600E8071070B5124BF0
:1006C000050088B098421CD8104C6368834215D04E
:1006D00000F038FB002814D10223009301AB45CC75
:1006E00045C345CC45C3226869461A600122084BC0
:1006F000524218680023029503F0CEFF002008B094
:1007000070BD01204042FAE73F420F0000E80710A9
:10071000A4180020014B1878C0B2704700E80710F9
:1007200070B50F4B04001A7888B0824214D00222B0
:10073000009201AA61CB61C261CB61C21B686946AC
:1007400013600122074B5242186800230C7103F01A
:10075000A3FF200003F0D6FB002008B070BDC04608
:1007600000E80710A4180020004870470CE80710A4
:1007700030B5010089B0002815D0022300930B4B3F
:1007800001AA31CB31C231CB31C21B6804A813603E
:1007900010220AF087F90122054B69461868524277
:1007A000002303F079FF09B030BDC04600E8071010
:1007B000A418002010B503F0C1FD002805D105489C
:1007C00003F0A8FB03F0C2FD10BD034803F0A2FB39
:1007D000FAE7C0466C1D0610441D0610B223012224
:1007E00070B5AA254B4C5B005242E2506D00635D30
:1007F000DA071CD402221A4208D05621FF31615C6C
:100800000A424DD05622FF32A35470BD0822102157
:100810001A40194212D0002A5BD15B0752D5FA2246
:100820000321C820520001F0C3FC635DEAE7002207
:100830000121002001F0BCFC635DE3E75623FF3398
:10084000E35C1940002A33D000291BD005F04AFA96
:10085000B8235B00E358C01AC82813D9FA236422CE
:10086000012100205B0001F0D9FC2000B2232A4ABC
:1008700069305B00FF30E25005F054FBAA235B00B7
:10088000E35CBFE703F0E8FC244B9968FFF7CCFC7E
:10089000C822002832D00821C82001F089FCE4E7F2
:1008A000FE220221C820920501F09CFC635DA9E7AD
:1008B000002200291CD0FA200021000101F078FC60
:1008C000635D9FE70321C820154A01F08BFC635D3F
:1008D00098E703F0C1FC114B9968FFF7A5FCC8220B
:1008E000002810D00821C82001F062FC635D89E770
:1008F0000021C82001F05CFC635D83E70421C8206F
:1009000001F056FCB1E70421C82001F051FC635D01
:1009100078E7C046A4180020C8AF000000E8071020
:10092000CDCC4C3E70B5AA240A4D64002B5DDB068D
:100930000BD5094803F0EEFA03F0ECFC04222B5D22
:1009400013432B55FFF74AFF70BD044803F0E2FA4A
:10095000FAE7C046A4180020841D06109C1D06104E
:1009600070B5802006F006FD244C012814D0C02369
:100970005B00E35C002B0ED17533FF33E35801338A
:1009800004D0AA256D00635D9B0723D5BA230122FD
:100990005B005242E25070BDAA2502266D00635DE5
:1009A0001E420DD0C22301225B0052420020E250C1
:1009B00000F0EEFD635DB3436355FFF70FFFEAE719
:1009C0002000BA23962279305B00FF30E25005F018
:1009D000A9FAE0E7012000F0DBFD0222635D13438A
:1009E0006355FFF7FBFE2000C223FA2289305B002B
:1009F0005200FF30E25005F095FAC7E7A418002036
:100A0000F0B5DE46574645464E46E0B5AC2791B0B8
:100A100004229B49042000F0E5F9012003F0C4FC06
:100A200008AB9846974B984C0493984B7F000593DE
:100A3000974B0293974B0393974B0193974B0093DC
:100A4000C2235B0099464B46B226BA25E158760090
:100A50006D0045E0E359013309D0210020005931F0
:100A60005D30FF31FF3005F07DFA00287CD1A359BD
:100A7000013309D02100200065316930FF31FF309A
:100A800005F070FA002866D16359013324D0BC23E5
:100A90005B0021009A467531A2445046FF3105F0B3
:100AA00061FA002818D001235B4263518233FF337F
:100AB0009B46E35C002B5AD100F084FD5022782342
:100AC0000721002001F0AAFB1E235046635105F0C8
:100AD00029FA01235A46A3544B46E1584B1C4FD1E7
:100AE000A259E359934200D9130062599A4200D99E
:100AF0001A008A4200D90A004146206804F016F81C
:100B00000128A7D143461B78012B5BD0022B52D082
:100B1000002B9FD143461B799A46002B72D0012BA4
:100B200098D103F037FC8346002800D193E0049865
:100B300003F0F0F9524606ABDA71D91D012201200B
:100B400000F050F9AA2208215200A35C0B43A354E1
:100B5000FFF744FE7EE7012300225B4200210020D4
:100B6000A35101F025FB8FE703F008FA7FE700238C
:100B70005A46A35403F002FA4B46E1584B1CAFD03F
:100B80002100200085318930FF31FF3005F0EAF97E
:100B9000002800D157E701234A465B420020A350BA
:100BA00000F0F6FCAA2202215200A35C8B43A3545E
:100BB000FFF714FE44E709A8FFF792FC009803F042
:100BC000A9F947E743461B79012B2CD0022B1CD0F7
:100BD000002B00D03EE7029803F09CF98020C00172
:100BE00006F0D0FB20002E4B5D30FF30E35105F0C6
:100BF00099F9AA2201215200A35C0B43A354FFF7E9
:100C0000EDFD27E7FFF7ACFE24E7019803F082F93A
:100C100003F068FBAA2214215200A35C8B43A35467
:100C2000FFF7DCFD16E7039803F074F9C2230122F5
:100C30005B005242E25005F055F8B823AA22022187
:100C40005B005200E050A35C8B4310210B43A35484
:100C5000FFF7C4FDFEE6059803F05CF95A4606ABC3
:100C6000DA71D91D0122012000F0BCF8AA22082166
:100C70005200A35C8B43A354FFF7B0FDEAE6C046E5
:100C800008E807101C1E0610A4180020341E0610C9
:100C9000C81D0610001E0610E41D06104C1E06108E
:100CA000B80B0000F0B50B4B05001E680C0089B0B6
:100CB000002E0CD06F4620220021684609F0C0FEAD
:100CC00000232200694630003D7103F085FE09B023
:100CD000F0BDC046A418002030B589B00500202220
:100CE0000021684609F0ACFE6C4601230122237006
:100CF000044B6946186852420023257103F0CCFC6E
:100D000009B030BDA418002010B505F089F90028FD
:100D100006D0044B1B68181A43425841C0B210BD9C
:100D20000020FCE7341A0020BC22054B10B59C586B
:100D300010F0D2F90100200010F0C8F910BDC04633
:100D4000341A0020012300B587B0049300230293D6
:100D500010330193093B03900093012200230121EA
:100D600001200CF073FB03000020002B01D107B021
:100D700000BD044A9B009958034803F0CBF80120BA
:100D80004042F4E790390610681E0610012130B584
:100D9000114D83B004004942286E04F02DF86A46D4
:100DA00000232100D01DD3710CF02EFB00280AD1A6
:100DB0006B46DC79002300220021286E03F06CFCD6
:100DC000200003B030BD0124044B8000C15804480A
:100DD00003F0A0F86442EDE7341A002090390610C1
:100DE0008C1E0610F0B54746CE4680B504000F00B5
:100DF00015008DB0042800D976E03D4A8300D35811
:100E00003C4E9F46CC23F35A99463B4B994500D123
:100E10006AE000239846002D20D00121306E49421F
:100E200003F0EAFFC423F15A043BF05AEBB20293F9
:100E300043460193ABB2039700934A4601230CF05B
:100E4000D4FBBA27F055012C28D0A84600281BD186
:100E5000002300220021306E03F01EFC40460DB03E
:100E6000C0BCB946B046F0BDCE23F35A9946CCE794
:100E7000C623F35A9946C8E7C823F35A9946C4E7EC
:100E8000CA23F35A9946C0E71C4B8000C1581C483E
:100E900003F040F801235B429846D9E7FFF764FC72
:100EA0001021814609F012FE04AB984604001B2273
:100EB000002105A809F0C4FD124B049303F06AFA5F
:100EC000434642461871631C537117200923494653
:100ED000937168442200073409F043FE4146E0B2B2
:100EE00010F058F8F05DB0E701235B429846B5E793
:100EF00014390610341A0020FFFF00009039061044
:100F0000B41E0610042DFFFFF0B510218DB00600B1
:100F100009F0DCFD0121244D04004942286E03F054
:100F20006BFFB623EA5A023BE95AE3B2029300236D
:100F3000A4B201930396009400200CF056FBFFF737
:100F400013FC1021070009F0C1FD1B220400002141
:100F500005A809F075FD154B04AE049303F01AFAC9
:100F6000631C307117207371092322003900684413
:100F70000734B37109F0F5FD3100E0B210F00AF862
:100F8000002300220021286E03F086FBBA23EB5CCD
:100F9000002B01D10DB0F0BD054A9B0099580548C2
:100FA00002F0B8FFF6E7C046341A0020042DFFFF18
:100FB00090390610D81E0610044B10B5186E002884
:100FC00003D00121494203F017FF10BD341A00205D
:100FD000054B10B5186E002804D000230022002114
:100FE00003F05AFB10BDC046341A002010B500248F
:100FF00082B0019410F076FE6B466946DC70084BB7
:1010000001AA58680331002303F0E6FC019B002B82
:1010100003D08022034B52051A6002B010BDC046B7
:10102000341A002004ED00E0F0B5C64600B592B0D9
:10103000FFF79AFB1021050009F048FD8023504A74
:101040005B05995C08AA11704E490600595C0020A6
:1010500051704D49595C91704C49595CD170FF21D8
:10106000C900595C11714A495B5C062153710CF04F
:10107000D1FA041E04D0200012B080BCB846F0BDE6
:10108000072101200CF0C2FA041EF4D141480FF0F0
:1010900061FF041EEFD1FF200FF084FD041EEAD192
:1010A0000CF095FA041EE6D13B4F10223B1D019334
:1010B000BB1C009302213B0001200CF0AFF9041E81
:1010C000D9D1B4235B429846B8447A884346B427C2
:1010D000D95BF3B2B6B202930190002300200395CE
:1010E00000960CF082FA1E23E1226B44D2001A8093
:1010F0004146B822895A4246D05B0093002202231F
:101100000CF069FA041EB6D100200CF0E9F9041EB7
:10111000B1D1FFF7CDFA012304930F330193093BBB
:1011200003900294009301220023012101200CF07E
:101130008DF9041E9FD1FFF717FB1021070009F05E
:10114000C5FC1B22050000210BA809F079FC134BFC
:101150000AAE0A9303F01EF96B1C30712F207371D5
:1011600009232A0039006844B37109F0FAFCE81D2C
:101170003100C0B20FF00EFFBA234246D0547AE7D6
:10118000F4070000F5070000F6070000F70700006D
:10119000F907000010250020E81A0020042DFFFFA9
:1011A000F0B54E4645465746DE46E0B55A4B9FB031
:1011B00006A918000A0070C870C200680AAC106066
:1011C0001A0020001032E0CAE0C0126802601A0063
:1011D0000EA82032E0CAE0C0126802601A0012A80D
:1011E0003032E0CAE0C0126802601A0016A840322D
:1011F000E0CAE0C01268503302601AAA904661CB80
:1012000061C21B6802201360444B0122994600937F
:101210000C230CF0BBF9002806D01FB0F0BCBB4675
:10122000B246A946A046F0BDC4235B424B449B4650
:10123000C4239A465B4652469B5A38219C464B46ED
:10124000023305931023C33A049008301E00039321
:10125000029201910090220060460F3B36390CF05B
:1012600076F90028D9D15C465546645B0221A44634
:101270004C46231D0593330007240233049002904B
:101280000093604603960194113B0EAA0CF05FF99F
:101290000028C2D157465D46ED5B4F46BB1D01227B
:1012A0003821059333000490083017000292019111
:1012B0000090039628000F3B12AA36390CF047F92C
:1012C0000028AAD15946554604234D5B494602934E
:1012D0000831023B059104900093022128000396F7
:1012E0000194023316AA0CF032F9002895D15B461E
:1012F00051465C5A4B460A3305933F230193353BD5
:10130000049000934246200003960297063BC239A0
:101310000CF01DF981E7C046F41B0610F81A0020F6
:1013200030B5284C0023220083B025005032012123
:1013300000930820230003F049F92100083D68606C
:101340005C31012003F006FB28661F480CF0A8F969
:10135000BA242855002810D1FFF766FEBA251B4C89
:101360006055002814D1FFF71BFFBA2560550028EF
:101370001DD1174802F0CEFD08E0164B8000C15881
:10138000154802F0C7FD2B5D002BE5D003B030BD42
:10139000104B8000C158114802F0BCFD635D002B6A
:1013A000F4D1FFF7FDFEBA2560550028E1D0094BC6
:1013B0008000C1580A4802F0ADFD635D002BD8D013
:1013C000E4E7C0463C1A0020903D0610341A002085
:1013D000341F061090390610FC1E0610141F06104C
:1013E000541F0610F0B5C64600B5ACB06B4602A956
:1013F000D81D0CF009F81E4B04009846BA2342464B
:10140000D05400280CD01B4BA400E1581A4802F01D
:1014100081FD0020FFF760FC2CB080BCB846F0BD19
:101420006B46DF7902AD17AE002F0CD02B7801345C
:101430003370701C691C0622E4B209F092FB073578
:101440000736BC42F2D10BF0DBFFBA254346041E3F
:101450005855D8D16B46D8790028DDD0012217A97C
:1014600002F04EFB4346041E5855D5D0CBE7C0468C
:10147000341A002090390610741F0610F0B5C646C5
:10148000C226402200B53C4C88B0A35D05009343C2
:10149000A3555BB2002B52DB0CF02AF8BA23E054C0
:1014A00000280ED046280CD0344B8000C158344858
:1014B00002F030FD0020FFF70FFC08B080BCB846FA
:1014C000F0BDFFF751F91021804609F0FFFA060040
:1014D0006F461B22002101A809F0B2FA294B0093A4
:1014E00002F058FF731C7B710923320041463871AA
:1014F0000736F81DBB7109F034FBF0B269460FF0F6
:1015000049FDBA26A0550028CED1002D25D0802136
:101510000130002302228900FF300BF0F3FFA055B9
:101520000028C1D1C2224021A35C17480B43A35419
:1015300002F0F0FCBA23E05C0028BED0B4E7C02380
:101540001321E05A0BF0ECFFBA23E054002DB4D085
:101550004022A35D1343A355AFE7B421F02003233A
:101560000222C90080000BF0CDFFA05500289BD1BE
:10157000064802F0CFFCDDE7341A0020903906104F
:10158000D41F0610042DFFFF981F0610BC1F061065
:10159000012170B50A4D04004942286E03F02CFC6D
:1015A000C223EB5C5B06DB0FA34202D02000FFF7F7
:1015B00065FF286E00230022002103F06DF870BD46
:1015C000341A0020012170B5134C4942206E03F0FB
:1015D00013FC0BF011FFBA23E054002813D10F487D
:1015E00002F098FCFFF7FEFEC223E05C00254006F7
:1015F000C00FFFF743FF002300220021206E03F0FD
:101600004BF8280070BD0125054B8000C1580548E6
:1016100002F080FC6D42EEE7341A00202420061010
:1016200090390610F81F061030B5C2250223294C48
:1016300085B0605D03420AD10423034215D1012322
:1016400003421BD10823034224D105B030BD984387
:101650006055BE33E05A0BF05FFFBA23E054002818
:101660002DD1605D04230342E9D0C2259843605523
:10167000FFF7B8FE0123605D0342E3D00200C225FC
:1016800040069A43C00F6255FFF7F8FE0823605DDD
:101690000342DAD09843BA33E05402F0DDFDCC23A4
:1016A0000390E15A083BE05A03AB00930022042365
:1016B0000BF091FFC023E05A0BF083FFC5E7064B08
:1016C0008000C158054802F025FC0020FFF704FB0C
:1016D000605DC7E7341A00209039061048200610D4
:1016E00030B583B004F09CFCBA23214C2060E35C4D
:1016F000002B38D10121206E494203F07DFBFFF71A
:1017000071FE0020FFF7BAFE002300220021206EA8
:1017100002F0C2FF6B46DD1D05E000230022002120
:10172000206E02F0B9FF012229005242606803F0E6
:10173000FDF90121206E494203F05EFB2B78002B5E
:10174000EBD18020C00105F01DFE03E00BF066FF29
:10175000FFF76AFF1FF0C6FA0028F7D08020C0010B
:1017600005F014FED9E70020FFF7B6FAC2E7C0463D
:10177000341A002070B506000D0014000D4802F068
:10178000C9FB31000C4802F0C5FB29000B4802F0F0
:10179000C1FB21000A4802F0BDFBC2217F23094A98
:1017A000505C03400120034302205354FFF794FA96
:1017B00070BDC0467020061094200610A4200610AC
:1017C000C0200610341A0020F0B5DE4657464E46BB
:1017D0004546E0B50D0087B01F0010AB10CB05905B
:1017E0001B8837489B4612AB1B8816009A4613ABE2
:1017F0001B88994614AB1B78984602F08BFB059921
:10180000304802F087FB29002F4802F083FB002EAE
:101810004CD12E492E4802F07DFB002F4CD12D4992
:101820002D4802F077FB2678E378227961790296D9
:1018300066782A480196A478009402F06BFB58461B
:1018400007F008FC08F0BCFE0022254B08F08EF9DA
:1018500008F084FE234B0100180002F05BFB5146A8
:10186000214802F057FB4B46990049441F48490064
:1018700002F050FB4346072B20D81D4A9B00995885
:101880001C4802F047FBC022C2211B4B9D52585CF2
:101890003F3AFF3A024301205A54FFF71DFA07B0BE
:1018A000F0BCBB46B246A946A046F0BD1349084865
:1018B00002F030FB002FB2D01149B1E71149DFE748
:1018C0001021061094200610A4200610D020061027
:1018D00034210610E0200610402106105821061081
:1018E0000000F43F7821061090210610A821061070
:1018F00070390610C8210610341A0020D8200610AE
:10190000F8200610F81C0610F0B5DE4657464E4685
:1019100045468846E0B589B01F0015AB1B88059089
:101920009B4616AB1B884C48079317AB1B88069247
:10193000994618AB1B78129E9A46139D149C02F090
:10194000E9FA0599454802F0E5FA4146444802F0B3
:10195000E1FA069B002B67D14249434802F0DAFACC
:10196000002F67D0012F6FD0022F69D0032F6FD0C7
:101970003778F37832797179029777783B48019715
:10198000B678009602F0C6FA2E78EB782A79697953
:1019900002966E7836480196AD78009502F0BAFA54
:1019A0002578E37822796179029565783148019547
:1019B000A478009402F0AEFA584607F04BFB08F00A
:1019C000FFFD00222C4B08F0D1F808F0C7FD2B4B8F
:1019D0000100180002F09EFA0799294802F09AFACD
:1019E0004B46990049442748490002F093FA534670
:1019F000072B23D8244A9B009958244802F08AFADE
:101A00004146C022224B9952C2213F3A585CFF3ACC
:101A1000024301205A54FFF75FF909B0F0BCBB46FE
:101A2000B246A946A046F0BD1A490F4802F072FA24
:101A3000002F97D1184802F06DFA99E71749DCE7B3
:101A4000174802F067FA93E7164802F063FA8FE747
:101A5000154802F05FFA8BE7E42106109420061087
:101A6000A4200610D020061034210610582106109C
:101A7000D0220610042306100000F43F782106103F
:101A800090210610A821061070390610C8210610F2
:101A9000341A0020D820061010220610F81C061058
:101AA000682206103C2206109822061070B5050028
:101AB0001C480E00140002F02DFA29001A4802F00A
:101AC00029FA052E0BD91949194802F023FAC22325
:101AD000184AD35C40218B438231535470BD164B5E
:101AE000B200D158124802F015FA022E0FD1013C73
:101AF000E4B20B2C09D8114BA400E158104802F0B5
:101B000009FAC2230B4AD35CE4E70849F6E7C2238B
:101B1000084AD35C002EDDD15906DBD504210B43E6
:101B2000D8E7C04638230610A4200610F81C06107B
:101B30005C230610341A0020583906102839061084
:101B40006C230610F8B507000C0016001D00214894
:101B500002F0E0F93900204802F0DCF921001F48CA
:101B600002F0D8F931001E4802F0D4F929001D48CE
:101B700002F0D0F90D2C0AD80123A3401A4A1342CF
:101B800004D1072C03D10698FEF7F2FDF8BDC62359
:101B9000164AD35A01339C4215D0CA23D35A013373
:101BA0009C4209D0CE23D35A01339C42EED1069BEE
:101BB0001868FEF73FFDE9E7069B1B78012BE5D18E
:101BC000FEF7F8FDE2E7069B1B78012BDED1FEF75E
:101BD000A9FEDBE77C230610A4200610A023061034
:101BE000B4230610C4230610042A0000341A00206F
:101BF00070B506000D0014000A4802F08BF93100A0
:101C0000094802F087F92900084802F083F9210009
:101C1000074802F07FF9C2210820064B5A5C0243B4
:101C20005A5470BDDC230610A420061000240610B0
:101C3000B4230610341A0020BC21014B5A507047BF
:101C4000341A002010B5034802F064F90020FFF7B1
:101C500043F810BD1C24061070B505000C000848A0
:101C600002F058F92900074802F054F9210006480B
:101C700002F050F90549064802F04CF970BDC04623
:101C80003824061094200610A420061058240610AC
:101C90008424061010B5024802F03CF910BDC0467D
:101CA000A024061010B5024802F034F910BDC04659
:101CB000D824061010B5024802F02CF910BDC04619
:101CC0000025061010B5024802F024F9002010BDCE
:101CD0002C25061010B5024802F01CF910BDC046B4
:101CE00044250610F0B5C64600B580461C006B467C
:101CF0000F00160014481D8B02F00CF941461348E2
:101D000002F008F93900124802F004F9300007F037
:101D1000A1F908F055FC00220E4B07F027FF08F050
:101D20001DFC0D4B0100180002F0F4F821000B48D7
:101D300002F0F0F8A90049194900094802F0EAF850
:101D400080BCB846F0BDC046682506109420061039
:101D5000A42006100000F43F782106109021061000
:101D6000A821061010B5024802F0D4F810BDC046F4
:101D70009425061010B5024802F0CCF810BDC046FC
:101D8000C825061010B5024802F0C4F810BDC046C0
:101D9000F025061010B5024802F0BCF810BDC04690
:101DA0001426061010B5024802F0B4F810BDC04663
:101DB0004826061010B5024802F0ACF810BDC04627
:101DC0007026061010B5024802F0A4F810BDC046F7
:101DD0009C26061010B5024802F09CF810BDC046C3
:101DE000C426061010B5024802F094F810BDC04693
:101DF000E426061010B5024802F08CF810BDC0466B
:101E00000827061010B5024802F084F810BDC0463D
:101E10003427061010B5024802F07CF810BDC04609
:101E20005027061010B5024802F074F810BDC046E5
:101E30007027061010B50C00034802F06BF8210063
:101E4000024802F067F810BD94270610C02706105C
:101E500010B5024802F05EF810BDC046D427061047
:101E600010B5024802F056F810BDC046FC27061017
:101E700010B5024802F04EF810BDC0461C280610EE
:101E800010B5024802F046F810BDC04640280610C2
:101E900010B5024802F03EF810BDC046602806109A
:101EA00010B5024802F036F810BDC046882806106A
:101EB00010B5024802F02EF810BDC046AC2806103E
:101EC00010B5024802F026F810BDC046C82806101A
:101ED00010B5024802F01EF810BDC046E8280610F2
:101EE00010B5024802F016F810BDC0460C290610C5
:101EF00010B5024802F00EF810BDC0463429061095
:101F000010B5024802F006F810BDC0465829061068
:101F100010B5024801F0FEFF10BDC046782906103A
:101F200010B5024801F0F6FF10BDC0469429061016
:101F300010B5024801F0EEFF10BDC046B4290610EE
:101F400010B5024801F0E6FF10BDC046D4290610C6
:101F500010B5024801F0DEFF10BDC046F0290610A2
:101F600010B5024801F0D6FF10BDC046202A061069
:101F700010B5024801F0CEFF10BDC046442A06103D
:101F800010B5024801F0C6FF10BDC0466C2A06100D
:101F900010B5024801F0BEFF10BDC046902A0610E1
:101FA00010B5024801F0B6FF10BDC046B82A0610B1
:101FB00010B5024801F0AEFF10BDC046E42A06107D
:101FC00010B5024801F0A6FF10BDC046102B061048
:101FD00010B5024801F09EFF10BDC046302B061020
:101FE00010B5024801F096FF10BDC046582B0610F0
:101FF00010B5024801F08EFF10BDC0467C2B0610C4
:1020000010B5024801F086FF10BDC0469C2B06109B
:1020100070B5144C251D2100280003F0A3FF0028F3
:1020200000D170BD022328002600236003F07AFF50
:102030009C24B423413EFF3E64005B00F1583059BC
:1020400006F018FA084D305102F0C0F83059291C3A
:10205000FEF7FEF80028E4D09A2300225B003551F9
:10206000F250DEE7481C00200000C84210B5154CB5
:102070002100201D03F076FF002815D0AE23413C3F
:10208000FF3C5B00E25C002A0FD10122E254B02346
:102090005B00E2580C48203BE250083BE05002F065
:1020A00095F80A4803F03EFF10BD00220020E254DC
:1020B0000833E258243BE250083BE05002F086F837
:1020C000EFE7C046481C00200000C8424C1C00201E
:1020D000F8B5284C251D2100280003F043FF0028F7
:1020E00000D1F8BD022328002600236003F01AFF68
:1020F00003F0F8FDAC23413EFF3E5B000700F058C3
:1021000008F05EFA1C4A1D4B07F030FD00221C4B04
:1021100007F02CFD00221B4B07F0A2FA0400380048
:102120000D0006F097FF08F04BFA02000B002000AC
:10213000290007F01BFDAA235B000400F0580D00E6
:1021400008F03EFA02000B002000290006F0C0FF54
:1021500008F078FA09F038FE011CFE20800506F030
:1021600081FD094906F086FC9C235B00F05002F0DB
:102170002DF8B6E7481C0020182D4454FB211940C7
:102180000000344000408F400000484210B5074C2A
:102190000023220082B000931C212300503208202B
:1021A00002F014FA043C206002B010BD0C1B0020A9
:1021B000F0B589B001AC07000E001500002118220F
:1021C000200008F03DFC0122054B21001868524216
:1021D000002302972672079502F05EFA09B0F0BD5F
:1021E000081B0020F0B589B001AC07000E00151CDB
:1021F00000211C22200008F023FC0123012223706F
:10220000054B21001868524200230297267204955C
:1022100002F042FA09B0F0BD081B0020F0B5C64636
:1022200000B588B080460F00160000211C226846C9
:102230001D006C4608F004FC022323704346012273
:102240000193074B6946186852420023277204968F
:10225000059502F021FA08B080BCB846F0BDC04632
:10226000081B0020F8B54746CE4680B5AC27A6230C
:102270005F4E7F00F0515B00F35C0C00002B69D1D6
:102280003933FF33F058984608F09AF9A022594B99
:10229000120609F0F9FD08F0D5F908F091F9A0222D
:1022A000554B120609F0CEFD08F0CCF94346F0502C
:1022B00003F018FD8146F05908F082F94F4A504B5F
:1022C00007F054FC00224F4B07F050FC00224E4B0D
:1022D00007F0C6F9040048460D0006F0BBFE08F002
:1022E0006FF902000B002000290007F03FFC80235B
:1022F0001B06CD18434604004449F05806F036FA50
:10230000FE21890506F0AEFC09F014FD08F058F92D
:1023100002000B002000290007F04EFE374A3C4B1C
:1023200006F0D6FE08F08EF9011C041C06F01CFE17
:1023300000285BD165006D083649281C06F014FEA4
:10234000002848D13349281CFDF76EFF002842D1F0
:10235000314C40E003F0C6FC142105002000FDF7DD
:10236000FFFE06F077FE9C235B00F15806F082FB2F
:10237000294906F0FBF9041C280006F06BFE011C3D
:10238000201C06F077F808F01BF90400F0590D0046
:1023900008F016F9194A1A4B07F0E8FB0022194B0E
:1023A00007F0E4FB0022184B07F05AF902000B007B
:1023B0002000290007F0DAFB8023C0221B06C91881
:1023C000D205134B07F0F8FD0C4A114B06F080FEC6
:1023D00008F038F9041CAA239A225B00F4500F4B32
:1023E0005200B350C0BCB946B046F8BD0024F2E775
:1023F000081B002099F958409999B93F182D445469
:10240000FB2119400000344000408F40000048424A
:10241000FB210940FFFF7F7F0000C842D12004104C
:10242000F0B54546DE4657464E46674BE0B59B46FF
:10243000664BA6269A46A02389B05B0000226D4613
:102440009846634C760055E068682F7A002800D1E2
:102450008EE006F0FFFD5F4906F088F9011C5E483A
:1024600006F084F9A8235B00E050143B9946E35C36
:102470002000FA1A511E8A41591E8B411340A35560
:10248000424600234530FF30A35003F04BFDA35DCF
:10249000002B0CD14B46E35CBB4208D09C230020B0
:1024A0005B00E05001F092FE380001F0D3FD9E2366
:1024B0005B00E7542B78012B78D0022B5AD0002BED
:1024C0001ED1A86900287DD006F0C4FD414906F060
:1024D0004DF9011C404806F049F9B4235B00E05077
:1024E0005B469A225200A350A25D002A12D198475F
:1024F0004346E2582900206802F018FB0128A3D0C7
:102500009A2301225B00E3585242002BF2D0A25DD5
:10251000002AECD02700210045374131FF37380031
:10252000FF3103F01FFD0028E2D0424602233800AD
:10253000A3509C2703F0F6FCA8237F005B00E15822
:10254000E05906F08FFBE05101F040FE0023E05916
:10255000191C9946FDF768FE0028C9D04B46E35187
:102560000023A3553D33FF33E05C01F073FDBFE76B
:10257000194877E714212869FDF7F2FDB0236F6948
:102580005B00E05014213800FDF7EAFDB2235B0048
:10259000E0504346E05020004530FF3003F0C2FCDD
:1025A000AE2300225B00E25453469AE76968E8686C
:1025B000FFF758FE9A2301225B00E3585242002B9A
:1025C000A5D197E7044888E7112004106D20041076
:1025D000081B0020000020420000C84210B5034A3A
:1025E0000349044801F0E0FC002010BD0832061049
:1025F000143206101C320610F8B5094C094E27009B
:10260000094D90372168300001F0CEFCA168280008
:102610000C3401F0C9FCBC42F4D10020F8BDC04626
:10262000283E0610283206102C1F061010B501286F
:102630002DD0022826D14C681A48210008F008FA4B
:10264000002816D02100184808F002FA002810D0FF
:102650002100164808F0FCF9002805D02100144894
:1026600008F0F6F9002818D10020FEF759F81149B2
:1026700003E00120FEF754F80F49104801F094FCE4
:10268000002010BD0E4801F08FFC0120F9E7FEF795
:1026900041F80028F0D10749EFE70A4801F084FC2F
:1026A0000120EEE74C320610543206105832061064
:1026B000183206104032061038320610B8320610B2
:1026C000903206106032061030B587B004000D005D
:1026D0001122002101A808F0B3F9012C1FD0022C0F
:1026E00018D16C682000FDF771FE01380F281ED844
:1026F0001022210001A808F0D5F92000FEF738F8D3
:102700006868FEF701FC0D4801A901F04DFC0020AE
:1027100007B030BD0A4801F047FC0120F8E7FEF79A
:1027200023F81022010001A808F0BCF9EBE7102102
:10273000044801F039FC0120EAE7C0460C330610DA
:1027400090320610C832061000B583B001281AD0A6
:10275000022812D1124B486801AA190008F0ECF8BF
:10276000002815D00198FDF7A9FF002814DB019976
:102770000C4801F019FC002003E00B4801F014FCA8
:10278000012003B000BDFDF793FF01000190EFE7CA
:10279000064801F009FCF3E7054801F005FCEFE706
:1027A00020330610683306109032061024330610CA
:1027B0004833061070B501F04FFD07F001FF0E4AD7
:1027C0000E4B06F085FC07F03DFF051C06F0E0FB14
:1027D000040006F03FFC011C281C06F043FA0849DF
:1027E00006F048F905F092FD064B020021001800A2
:1027F00001F0DAFB002070BD9A9999999999A93F47
:10280000000020417433061030B50C0083B001285D
:1028100058D0022851D14D682E21280008F061F9C6
:10282000002805D04378002B02D000238370656810
:1028300000236A46009301932800274901AB08F062
:102840007BF80138012833D8019806F003FC2349AE
:1028500005F08CFF041C009806F0FCFB011C201CFA
:1028600005F008FE041CFDF7E5FE00282ED1201C13
:1028700007F0A6FE1A4A1B4B06F02AFC07F0E2FE00
:10288000051C06F085FB040006F0E4FB011C281C77
:1028900006F0E8F9114906F0EDF805F037FD124BA6
:1028A00002002100180001F07FFB002003B030BDC2
:1028B0000E4801F079FB0120F8E70D4801F074FBA8
:1028C0000120F3E7FDF7B0FE041CD0E7094801F052
:1028D0006BFB0120EAE7C0468C3306100000204164
:1028E0009A9999999999A93FEC3306109433061057
:1028F00090320610B4330610F0B5CE46474680B588
:102900009BB005A8FEF742FA061E36DD1D4801F011
:102910004BFB1D4BF50099461C4BAD1B05AC984677
:102920001B4F1C4E65190AE0012B02D1404601F0F5
:102930003BFB3000073401F037FBAC4217D0607826
:1029400023796279A1790290A0780190E0780090D3
:10295000380001F029FB2378002BE5D1484601F02F
:1029600023FB0734300001F01FFBAC42E7D100200D
:102970001BB0C0BCB946B046F0BD074801F014FB1F
:10298000F5E7C046203406105C34061064340610A7
:102990003C340610641E06100C34061010B5FEF709
:1029A00011FE054801F000FB142003F0DDF801F0F2
:1029B000E5FA002010BDC0466C34061010B5FDF7D6
:1029C00017FEFEF7FFFD054801F0EEFA142003F0B4
:1029D000CBF801F0D3FA002010BDC04688340610B1
:1029E00030B5012387B0012802D0180007B030BDF0
:1029F000FDF790FE00283BD01E491F4801F0D4FA95
:102A0000FDF756FE1D4B0100180001F0CDFAFDF751
:102A10000BFE07F0D5FD1A4A1A4B06F059FB07F0DA
:102A200011FE051C06F0B4FA040006F013FB011CAD
:102A3000281C06F017F9144906F01CF805F066FC8E
:102A4000124B02002100180001F0AEFA1122002101
:102A500001A807F0F5FFFDF787FE1022010001A88D
:102A600008F020F80A4801A901F09EFA0023BCE70B
:102A70000849C2E738320610B8320610683306102B
:102A80009A9999999999A93F00002041EC33061031
:102A90000C330610403206107047C046F0B54E4663
:102AA000DE4657464546E0B5C5B034AB9946E24BE5
:102AB000370008932EAB9846E04B0393E04B0C9302
:102AC000E04B0B93E04B0D93E04B0493E04B0A93E8
:102AD000E04B0193E04B1093E04B1193E04B0693D6
:102AE000E04B0793E04B0E93E04B0293E04B0F93C8
:102AF000E04B1D93E04B0993E04B1293E04B139393
:102B0000E04B1493E04B1593E04B1693E04B179377
:102B1000E04B1893E04B1993E04B1A93E04B1B9357
:102B2000E04B1C93E04B1E93E04B1F93E04B209334
:102B3000E04B2193E04B2C93E04B2D93E04B229301
:102B4000E04B2393E04B2493E04B2593E04B2693FB
:102B5000E04B2793E04B2893E04B2993E04B2A93DB
:102B6000E04B2B9300239B464B465A4608981A701D
:102B700001F01AFA002300259A4600260DE0DA4AF1
:102B8000934200D123E1D94A934200D125E10823A1
:102B90005E460137BB427641F6B20120404201F069
:102BA00035FA0400002E00D1F1E14346DC551B68E4
:102BB000CF4A9342E3D1002DE9D00398013D01F0C3
:102BC000F3F90120404201F021FA3E000400230005
:102BD000083BDBB2132B03D8019A9B00D3589F46C6
:102BE00053463F2B00D885E10120404201F00EFA08
:102BF0000400ECE72EAB07220021581C07F020FF51
:102C000001201B2342464042137001F0FFF90127C7
:102C10000400CAE7099801F0C7F937004B46564649
:102C20005A469B191A70002E9EDD4B4620214846BD
:102C30009A55309307F028FF002800D17EE15B46CB
:102C4000202103700130319007F01EFF002800D1D1
:102C500081E15B46202103700130329007F014FFC0
:102C6000002800D179E15B460424037001303390E1
:102C70004846149907F0ECFE002800D166E148466A
:102C8000159907F0E5FE002800D16AE1484616993B
:102C900007F0DEFE002800D165E14846179907F0ED
:102CA000D7FE002800D160E14846189907F0D0FE11
:102CB000002800D15BE14846199907F0C9FE0028B9
:102CC00000D158E148461A9907F0C2FE002800D109
:102CD0004FE148461B9907F0BBFE002800D14EE1AA
:102CE00048461C9907F0B4FE002800D145E148464B
:102CF0001E9907F0ADFE002800D144E148461F9917
:102D000007F0A6FE002800D13BE14846209907F0D5
:102D10009FFE002800D138E14946219801F044F98E
:102D200022E75346002B00D15EE70E9F05963C003C
:102D3000903726684946300007F0E7FE002803D0A8
:102D40003100029801F030F90C34BC42F1D149460F
:102D50000F98059E01F028F9554500D144E75346E8
:102D60001D98591B01F020F93EE7069801F01CF967
:102D70004946079801F018F936E7002D00D133E7EE
:102D80006B1E52461C00571E05934C44BB4205D295
:102D900029002000521B494407F040FE4B465A468A
:102DA000DB191A70109801F0FFF8119801F0FCF887
:102DB0002100049801F0F8F80A9801F0F5F80120D4
:102DC000404201F023F9BA460400059DFFE655454F
:102DD00000D3DCE60C980135F1E643461B79002B65
:102DE00000D0D4E6554500D3D1E65346681C5E1E9C
:102DF000864207D95246A91C023A521B494448440C
:102E000007F00CFE4B465A469B191A700B9801F0BE
:102E1000CBF80D9801F0C8F84B460498591901F009
:102E2000C3F80A9801F0C0F80120404201F0EEF822
:102E3000B24604003E00CAE6B8340610CC34061090
:102E4000D0340610DC340610E8340610EC340610DA
:102E5000F0340610C43D0610FC3406100835061088
:102E60001035061018350610283E06102C350610B1
:102E7000343506104C350610641E06105435061005
:102E800058350610643506106C350610743506107A
:102E90007C35061084350610883506108C350610F2
:102EA000943506109C350610A4350610B43506106E
:102EB000BC350610C0350610DD250410F9250410B8
:102EC0002D260410C926041049270410B527041024
:102ED00009280410E1290410F92804109D29041080
:102EE000BD290410253204101B5B43001B5B337E9D
:102EF0001B5B4400554532D25A1B4B466F1C591977
:102F0000D81907F08BFD012294462B004A46E24473
:102F10004B4452441C70059313005A460B981A7088
:102F200001F042F80599049801F03EF8129801F07A
:102F30003BF813983D0001F037F855E648461499E0
:102F4000012407F085FD002800D098E62C9B200086
:102F500030A9984708E602248AE6032488E66F1C15
:102F6000D1E72D9BF3E7229BF1E7239BEFE7249B1F
:102F7000EDE7269BEBE7259BE9E7289BE7E7279B07
:102F8000E5E72A9BE3E7299BE1E72B9BDFE73E0090
:102F90001DE6C04670B5037B04000D00002B0AD06F
:102FA00061682C4801F000F8237B042B4ED82A4A94
:102FB0009B00D3589F46294800F0F6FFF0E72848C9
:102FC00000F0F2FF2169274800F0EEFFA16A2648D1
:102FD00000F0EAFF002D36D0A06906F03BF8234947
:102FE00005F048FD041C280006F034F8011C201CE4
:102FF00005F0BCFB051C05F0CBFF040005F0E6FF67
:10300000011C281C05F02EFE194905F033FD05F0C2
:10301000BFFF0200174B2100180000F0C5FF164843
:1030200000F0C2FF70BD154800F0BEFFCAE71448AB
:1030300000F0BAFFC6E7134800F0B6FFC2E7124837
:1030400000F0B2FFBEE700220024E3E70F4800F0E3
:10305000ABFFB7E7F4350610143E0610EC3506104A
:103060002C3606105C360610643606100000C84286
:1030700000002041703606107C3606103C360610E3
:103080000C3606101C360610FC3506104C360610A1
:10309000F0B5CBB008AC02F02BFE0621200001AA4F
:1030A00003F09CF802AD061E2ED0029401281ED01B
:1030B00013AB6B60022841D01EAAAA60032809D076
:1030C00029AAEA60042805D034AA2A61052801D07B
:1030D0003FAA6A61A169626C701E914235D369682A
:1030E000AB688C699A69944221D3022832D14C484A
:1030F00000F05AFF0024019901CD0134FFF74AFF87
:10310000A642F8D84BB0F0BD02996A688869946904
:10311000844256D8AB689F69A74219D96B60AA60F0
:10312000B84215D20120404269600293DDE7A960F0
:1031300002996B608C69A242D7D9F5E7A169626CEC
:103140009142D4D202936C60D1E702936C60C6E7DF
:1031500001204042AB68E9689C698A6994424ED379
:103160000328C4D0EB6829699C698A6994422DD3ED
:103170000428BCD02A69696990698B698342B6D9F1
:10318000E8686A6182692961934202D91A0028615C
:10319000E960A968E8688B69934202D21300E9608C
:1031A000A8606968A8688A69934202D91A00A96070
:1031B0006860029B69689869824298D96B60029145
:1031C00095E7012002926960404288E7AC682B6174
:1031D000A369E9609A4202D91300EC60A9606968AA
:1031E000AC688A69934202D91A00A9606C60029B9C
:1031F00069689C69A242BBD96B600291B8E76C68B0
:10320000EB60A369A9609A4202D91300AC606960BF
:10321000029A69689469A342A2D96A6002919FE701
:103220008836061070B50E4800F0BEFE0D4E0E4DED
:103230000E4C300000F0B8FEFFF72AFF280000F027
:10324000B3FE200000F0B0FEFA20800000F0DEFEA9
:103250000328EED1064800F0A7FE002070BDC0464E
:10326000C8360610D0360610DC360610F4360610C6
:10327000641E061010B507F05FFC0C2303600120EC
:10328000404210BD30B50400080085B02060200029
:1032900011001A00184B1C301C6001F0FBF8099A51
:1032A0000899201D01F0F6F80325230000220021D3
:1032B00038330095012001F089F923000022606372
:1032C00000218C330095012001F080F98823002132
:1032D000E050606B01F090FD0121082004F0A4F89B
:1032E000064B03A81A8802809B78837004F08EFC3A
:1032F000002005B030BDC046741C0020541C0610D0
:1033000030B585B008AC25780191072A45D011D891
:10331000052A46D00121062A08D101AC217161712C
:10332000012B0FD0022B3AD0002B0CD001204042B1
:1033300005B030BD0321082AF8D101AC21716171BB
:10334000012BEFD10223E371002D01D0012DEDD12E
:10335000436AA5715A1E9341C2685B002372002A1A
:1033600002D0012213432372002300206372013331
:10337000A37204F0DBF8200004F0E6F8062004F065
:10338000D9F9002004F0CAF90121102004F088F9CD
:10339000012004F0CBF80020CAE70221BDE7012399
:1033A000D1E70021B9E7C046F0B5C64604000E00DB
:1033B0001700002000B5002A02D180BCB846F0BD3D
:1033C00081200021400104F06BF90021606B01F0C5
:1033D00013FD8120400104F09BF90EE0002D28D060
:1033E000E36A226A18780133E362934201D3E36906
:1033F000E362013D256304F05FF9202004F06CF9DD
:10340000256B0028EAD000239846002D11D020001B
:1034100031003A001C3001F047F8236B0500012110
:10342000002B18D18020400104F03AF928004044D4
:10343000C3E7002505E0BD4211D0705D04F03CF902
:103440000135202004F048F9A84673190028F2D06D
:103450001E007F1BDBE7202004F022F9E6E70027AF
:103460001E00D4E770B505004B1C0BD032220023A0
:103470000800002104F028FFFA2200239200FCF744
:10348000F1FE0100686B01F0B7FC0400012802D0D6
:103490000024200070BD02F0E9FF082004F01CF9B0
:1034A000002803D0002402F0EDFFF2E70023002201
:1034B0000021686B01F0F0F8F5E7C046F8B50400AC
:1034C0000F0016000020002A00D1F8BD00211030A6
:1034D00004F0E6F832003900201D01F011F8050073
:1034E000864206D822E004F0EFF878550135AE4266
:1034F0001CD9102004F0F0F80028F4D0102004F0BB
:10350000EBF8A369002817D1E2689A4214D004F0BE
:10351000DBF8236918702369A268013323619342A1
:1035200001D363682361A3690133A361102004F010
:10353000D3F8A3690028E7D0002B05D01020012183
:1035400004F0AEF82800C0E788330021E05801F00D
:1035500053FCF3E770B505000C004B1C0BD0322276
:1035600000230800002104F0AFFEFA22002392009D
:10357000FCF778FE04008826002004F0DBF8210028
:10358000A85901F039FC012804D0062004F0D2F833
:10359000A86970BD002300220021A85901F07CF821
:1035A000F3E7C0463E4B10B51C68002382B02020D4
:1035B000019304F0A3F8012813D08020400104F007
:1035C0009DF8012858D0102004F098F8012831D037
:1035D000019B002B03D08022324B52051A6002B0AF
:1035E00010BD314B1B8F9B06E7D51F3004F090F8C0
:1035F0000EE0002A14D0E36A216A18780133E362EE
:103600008B4201D3E369E362013A226304F054F888
:10361000202004F061F8226B0028EAD0002ACCD1E7
:103620000021202004F03CF880200121400104F01A
:1036300037F8C2E71C4B1B8FDB06C9D50F3004F0EF
:1036400067F80EE004F040F8236918702369A26857
:1036500001332361934201D363682361A36901337A
:10366000A361102004F038F80028EBD0882301A9CA
:10367000E05801F00FFAABE780220B4B52011B8F91
:103680001342A0D0100004F043F880200021400134
:1036900004F006F8606B01A901F0FCF993E7C0465D
:1036A000741C002004ED00E0000030400D4B70B5AC
:1036B00005000C0099420CD00B4B99420FD1802091
:1036C0000121400103F0B0FE002300202C606B605C
:1036D00070BD80200121000103F0A6FEF4E7012067
:1036E0004042F5E70000D0400000E04070B5040023
:1036F0001A480D00002682B00902814208D8FCF762
:103700002FFD80235B00984225D845430138C6B27F
:1037100029001248FCF724FD6060684604F060F858
:1037200080236D465B002B800023AB70AB80636809
:103730006946013B2068EB80EE7004F009F8012235
:103740002068002104F05EF82068012104F04EF8A2
:10375000002002B070BD1800D7E7C0460048E8015D
:1037600070B50C1C06000021201CFCF753FD00283E
:103770001CD10F49201CFCF761FD002800D00C4C27
:103780007568280005F066FC211C05F073F906F049
:1037900017FF0022074B05F063FF04F0CFFD3368ED
:1037A0002D1AADB282B29A801D8170BD0024E7E768
:1037B0000000C84200005940002203681A80704788
:1037C000002310B50160037180204000012103F047
:1037D0002BFE002010BDC04600B583B00023017150
:1037E000684603700133FF334380FE3B4170037131
:1037F00004F01EF8012004F099F8012004F082F88A
:10380000002003B000BDC04670B5050004240120AF
:1038100004F05AF8042004F097F80028FAD0013C8C
:1038200004F0D6F9002CF2D12879022104F094F8A2
:1038300070BDC04610B507F094F910BD10B507F083
:10384000FFF810BD10B507F0DBF810BD084B1A6883
:10385000084B9A420AD13F23074A40061381000CC5
:103860002E3B90611380138ADB07FCD57047C0465E
:1038700014000020CCBCECFC00001040084B1A687F
:10388000084B9A420AD13F23074A800813810C3B18
:10389000906111641380138ADB07FCD57047C04622
:1038A00014000020CCBCECFC00001040034B1B8A31
:1038B0001840431E9841C0B27047C04600001040F7
:1038C000C02380211B061A680A431A601A688A43BB
:1038D0001A607047C02301211B061A680A431A6048
:1038E0001A688A431A607047C0231B06186880074D
:1038F000C00F7047054B1B78002B05D1044B18688F
:10390000431E9841C0B270470120FCE7781C00209C
:10391000000400C0F0B5534B91B01C006A46E0CCE7
:10392000E0C2E0CCE0C260CC60C22033E0CBE0C2B9
:1039300070CB70C230CB30C2012857D002281CD0C7
:10394000032850D16A4620234C1E551E03E0013B3C
:10395000002B00D17CE0E05CEA5C861A9042F6D055
:10396000414B1A78002E00DB74E0022082433F486E
:103970001A700C1D02003E4B50E06A4620234C1E7C
:10398000551E02E0013B002B5CD0E05CEA5C861A2D
:103990009042F7D0344B1A78002E55DA012082433A
:1039A0001A700C1D4B0759D1324BCB18002B55D038
:1039B0000C684D68304B1C605D60304B8C68CD6886
:1039C0001C605D602E4B0C694D691C605D602D4B69
:1039D0008869C969186059602B4B2FE0224B1A780F
:1039E00004210A431A70012011B0F0BD1F252023C5
:1039F0004C1E6D4402E0013B002BEFD0E05CEA5C22
:103A0000861A9042F7D0184B1A78002EE8DA042074
:103A100082431E481A7002001D4B0C1D0D68056084
:103A20002068506088689060C868D060086910613C
:103A30004869506188699061C969D161002200209C
:103A40001A60D1E7084B1A7801210A431A70CAE7B5
:103A5000054B1A7802210A431A70C4E706480A4B3C
:103A60000200DBE7581C0610781C0020B40400C0DC
:103A7000D40400C074FBFF3F900400C0980400C051
:103A8000A00400C0A80400C0B00400C06C0400C0C2
:103A90008C0400C0431E10B5022B1DD8C200164B6B
:103AA00012189200D318880718D114481018081A51
:103AB000022813D91A680A605A684A609A688A60AC
:103AC000DA68CA601A690A615A694A619A698A6140
:103AD000DB69CB61002010BD0120FCE70800521A11
:103AE0002030054C8B18A44663441B780B700131C1
:103AF0008842F6D1EEE7C046480400C0490400C041
:103B000010B514F083FB10BD10B511F0B3F810BD63
:103B100010B510F067FC10BD10B510F06DFF10BDB2
:103B200070B584B06E466C466D46B68D248CAD8CF7
:103B300003960A9E01950296009411F08DF904B047
:103B400070BDC04670B584B008AC20CC0AAE2478F5
:103B5000367801940296009511F0BEF804B070BD5D
:103B600010B50AF0B1F910BD10B512F04FFC10BD40
:103B70000120704710B509F085FF10BD10B514F095
:103B8000BBFD10BD10B512F005FB10BD10B515F052
:103B90007DFE10BD10B50AF06DF910BD10B50AF02C
:103BA00071F910BD10B50EF031FA10BD10B517F057
:103BB000A5FE10BD10B517F0C5FB10BD10B517F070
:103BC00025FF10BD10B517F0E4FB10BD10B510F0C7
:103BD000FBF810BD10B510F007F910BD10B510F0CE
:103BE0000FF910BD10B511F08FFA10BD10B50DF022
:103BF000E3FF10BD10B511F0C7FC10BD10B511F0FA
:103C0000D3FA10BD10B511F001FC10BD01207047B2
:103C100010B50DF07DF810BD10B519F0B7FF10BD4F
:103C200010B519F087FF10BD10B519F06BFF10BD6E
:103C300010B51AF045F910BD0120704710B51AF003
:103C4000C5F910BD10B51AF087F910BD10B518F000
:103C500095FB10BD10B518F0ABFB10BD10B518F0FA
:103C600025FC10BD10B518F01BFB10BD10B518F0E9
:103C70002FFB10BD10B518F04DFB10BD10B518F09E
:103C8000ADFB10BD10B518F0C3FB10BD10B517F09B
:103C9000B5FB10BD10B517F085FB10BD10B517F0C2
:103CA00075FF10BD10B517F06DFE10BD70B50400A6
:103CB0000DF012FA050002F091F901281CD072B63D
:103CC00002F08CF9002812D01A4B19781A4B1A7886
:103CD000022808D0022002F02FFD184B1B78002B81
:103CE0001CD162B670BD013002F026FDF9E762B664
:103CF00003300DF015FAF5E702300DF011FA60010E
:103D0000001B800000193221C000FCF729FA0100D5
:103D100003200DF0EAF90DF095FAD0E70DF0DCF98B
:103D200029000DF0D3F91421FCF71AFA01F0E6FF8F
:103D3000D7E7C0467A1C0020791C00200C00002028
:103D4000024B1870024B19707047C0467A1C002055
:103D5000791C0020F0B5C64600B58AB004F0B6F96B
:103D6000604C0120210000F0F5FD5F4B0121E618B9
:103D70005E4B0027F050012003F056FB04A803F02F
:103D8000F3FA802304936B4604A81F7503F008FA26
:103D900080235B0104936B4604A81F7503F000FAAF
:103DA0004023062504936B4640201D7503F0EEFA70
:103DB00004A803F0F5F980206B46C0011D7504903E
:103DC00003F0E4FA04A803F0EBF9202398460493E7
:103DD0006B4620201D7503F0D9FA04A803F0E0F922
:103DE0000F2304936B460F201D7503F0CFFA04A830
:103DF00003F0D6F9102304936B4610201D7503F0D1
:103E0000C5FA04A803F0CCF980231B0104936B4688
:103E1000053D04A81D7503F0C3F980235B000493DE
:103E20006B4604A81D7503F0BBF9314B03A81A8833
:103E3000013502809B78837003F0E8FE8022002326
:103E400006A806920793089503F0ACFA8022002397
:103E5000520106A806920793089503F0A3FA84205E
:103E6000400103F0D5FA84200121400103F0C4FA97
:103E700041460191210080231E4A2439A218009155
:103E800030001D49DB00FFF7FDF92500E12100238B
:103E900008225035300000974902FFF731FA280018
:103EA0001649FFF703FC64212800FFF71FFC81215E
:103EB00060342000C905FFF783FC02212000FFF7D2
:103EC0008BFC0121802003F0AFFA0D4803F08CFE3B
:103ED00003F090FE08210820FFF732FF0AB080BCF3
:103EE000B846F0BD182A002000FBFFFFFC040000CC
:103EF000981C0610DCFBFFFF000030400000D040A3
:103F0000FD7F0700014B024A985470471825002096
:103F1000690500000FB4F0B5144B154D0024EB5C9F
:103F200083B0002B05D1200003B0F0BC08BC04B066
:103F3000184701210F4E09AFA8594942019700F0D7
:103F40005BFF80210C4C3B00089A2000490006F0E2
:103F50004BFD210002002800FFF726FA0023040091
:103F600000220021A85900F097FBDCE7690500005A
:103F700018250020FC0400007C1C002010B5074818
:103F8000FFF7C8FF012001F0EFFDBFF34F8F044B97
:103F9000044ADA60BFF34F8FFEE7C046E0380610F0
:103FA00000ED00E00400FA050FB4F0B5C6460121AB
:103FB00000B582B0124C08AE124F08CEE05949420B
:103FC0009846019600F018FF80210F4D33004246BD
:103FD0002800490006F008FD290002002000FFF734
:103FE000E3F90500002300220021E05900F054FB12
:103FF000280002B080BCB846F0BC08BC04B018472A
:1040000018250020FC0400007C1C002070B582B044
:104010006B46DD1D00230D4C010020002B70FFF7C7
:1040200099FA01210A4E4942A05900F0E5FE290003
:1040300001222000FFF742FA002300220021A059AC
:1040400000F02AFB287802B070BDC0461825002079
:10405000FC040000F0B5C646AB2600B5504CF60097
:1040600082B0A75D0500A0550F2003F08FF94D4BDE
:104070004D49E358181C984604F0F4FD06F0A0FAE8
:104080004A4A4B4B05F072FD06F0DCFA07F072FE6F
:1040900006F096FA474A484B05F068FD0022474B68
:1040A00005F064FD464B474A05F086FF06F0CAFA64
:1040B000A35D011C082B03D03B4804F0D3FD011C79
:1040C000AA23DB00E018FFF74BFB4246354BE250DA
:1040D000043BE35CBB4204D0AA23DB00E018FFF7FB
:1040E0006BFB082D58D8384BAD005B599F4601201B
:1040F00003F048F9042003F045F9022003F042F9E7
:10410000002F0FD1684603F02FF910236A46009361
:104110000B3B6846137103F043F8202003F02AF9A3
:1041200000280CD002B080BCB846F0BD012003F0DE
:1041300029F9042003F026F9002FE3D0F2E701214A
:10414000202003F027F9052001F00EFDEAE7082002
:1041500003F018F9002FD5D0E4E70021202003F068
:1041600019F9684603F000F910236A4600930A3BE8
:104170006846137103F014F8D4E7012003F002F944
:10418000002FBFD0CEE7012003F0FCF8022003F09F
:10419000F9F8002FB6D0C5E7002FC3D1B2E7C0466B
:1041A000182500205C0500000000C8429A999999E2
:1041B0009999A93FD2847F2DC91BF03F0000594037
:1041C0002BB5E53FE1C39F8BB83E061070B518498B
:1041D000041C04F047FD06F0F3F9164A164B05F0EF
:1041E000C5FC06F02FFA07F0C5FD06F0E9F9134A01
:1041F000134B05F0BBFC0022124B05F0B7FC124B31
:10420000124A05F0D9FE06F01DFAAB23104DDB0073
:10421000EB5C011C082B03D0054804F023FD011CB6
:10422000AA23DB00E818FFF79BFA0A4BEC5070BD9D
:104230000000C8429A9999999999A93FD2847F2DF3
:10424000C91BF03F000059402BB5E53FE1C39F8BF0
:10425000182500205C05000070B5202003F08AF8C6
:10426000002826D01B4C02212000FFF7B5FA2000C1
:10427000FFF7CAFA184B051C9C46AB236444DB00CD
:10428000E35C002B10D0202003F074F8002818D035
:10429000281C124904F0EEFB114904F067FA011CD6
:1042A0000E4804F0DFFC70BD0021202003F072F8FE
:1042B000EEE70121203003F06DF8052001F054FCF9
:1042C000D0E70121203003F065F8052001F04CFC17
:1042D000DEE7C046782A0020A0FAFFFF0000C842AF
:1042E0003333534010B582B06A46084B03CB03C248
:1042F000402003F04BF8684602F052FFAD22012146
:10430000034BD200995402B010BDC0469C1C06104D
:1043100018250020402310B582B06A46002400937F
:10432000002368469380947102F03AFFAD22024B5D
:10433000D2009C5402B010BD18250020AD22024BC3
:10434000D200985C7047C0461825002010B582B096
:104350006A460E4B6C4603CB03C2684602F020FF50
:10436000402003F00FF8072001F0FEFB402003F08F
:104370000DF8AD22064BD2009B5C002B01D002B0A1
:1043800010BD6846237102F00BFFF8E79C1C061075
:1043900018250020802010B5400102F0EBFF013805
:1043A00043425841C0B210BD8022012300B585B000
:1043B0005201029068460092019302F0F3FF05B0AB
:1043C00000BDC04600B5802085B003F025F8012867
:1043D00007D08020400103F01FF8012815D005B058
:1043E00000BD7F3003F014F869460020FCF75AFC4A
:1043F000009B002BEDD080228020144B52051A60C8
:10440000400103F009F80128E9D18020400102F0C1
:10441000B1FF802201235201013800920193431E13
:1044200098410290684602F0BDFF8020400102F0F2
:10443000EFFF69460120FCF735FC009B002BCED036
:104440008022024B52051A60C9E7C04604ED00E025
:1044500010B50E4803F0C8FB01F044FC952801D8C4
:10446000012010BD0A4C00212000FEF7FBFF0028B0
:10447000F6D08020400102F07DFF0128F0D0AB2370
:10448000DB00E35C002BEBD10320EAE7FD7F0700B4
:1044900018250020002382608A1801604260C160F4
:1044A000016143617047C046F0B5C64685684369FF
:1044B00004000E0000B5ED1A954200D91500E06821
:1044C00067683F1ABD420DD22A00310006F049FB51
:1044D000E2685219636928005B19E260636180BC7D
:1044E000B846F0BD3A00310006F03BFBEB1B9846A6
:1044F0001A002068F11906F034FB22684244E9E70B
:10450000F0B5C646456904000E0000B5954200D9D5
:104510001500216967687F1ABD420DD22A0030005C
:1045200006F01FFB22695219636928005B1B226198
:10453000636180BCB846F0BD3A00300006F011FB64
:10454000EB1B98461A002168F01906F00AFB226856
:104550004244E9E770B51600026C0400856B002A3E
:1045600006D1066801350020002E25D0A56370BD58
:10457000002E0ED1406806F0F4FA6368226C013513
:104580009B18A2686360934201D323686360002094
:10459000ECE7C06806F0E5FA226CE36851429B1A2A
:1045A0002268E360934202D2A3685B18E360022EA4
:1045B00007D000200135D9E7A06801F081FDA66091
:1045C000D4E7002DF5D00020D0E7C04670B582B00A
:1045D0001C006B461D7E002C0ED000280AD0002A3D
:1045E0000CD0002906D050230193019B502B3CD0C6
:1045F00072B6FEE772B6FEE772B6FEE70029F9D1A1
:1046000050230193019B502BF2D12200019B4623A2
:104610000126E6542260E0632164020C0B0C002AA0
:1046200035D1002B23D101F021FF216CE36B2268EF
:104630004B43D018A06000205B1A6260D218E26081
:10464000FF234422A0632000A3540132A35410305E
:1046500002F038F82000243002F034F801F012FFA4
:104660004C232000E55402B070BD019BCFE7844687
:104670001A1C89B20B00614680B2434389B292B2E0
:104680004A431B0CD3181B0CCDD072B6FEE7002B8F
:10469000FBD18C46EDE7C046F0B5CE46474680B527
:1046A00085B0041E88469946019200D102E1002996
:1046B00000D19DE04B46022B00D19FE001F0D6FED9
:1046C000A26BE36B9A427FD34A460023022A7BD037
:1046D00026002436019A002A00D1F5E0002B00D1F3
:1046E000E4E001F0CFFE01F0E7FA01F0BFFE442262
:1046F000A35C5BB2013301D10023A3544522A35C28
:104700005BB2013301D10023A35401F0BBFE01A928
:1047100002A801F027FC002800D0D9E001F0A6FE95
:10472000A26BE36B9A4200D16EE001F0ABFE01F0A8
:104730009DFE4523E55C6DB2002D05DC13E0013DD7
:10474000EBB26DB2002B0ED0636A002B0BD03000A1
:1047500001F074FB0028F2D0013D01F039FCEBB20E
:104760006DB2002BF0D14523FF22E25401F08AFE06
:1047700001F07CFE4423E55C6DB2002D16DD2700C0
:10478000103704E0013DEBB26DB2002B0ED023696F
:10479000002B0BD0380001F051FB0028F2D0013D76
:1047A00001F016FCEBB26DB2002BF0D14423FF22D6
:1047B000E25401F067FE01F087FA01F057FEA16BA9
:1047C000E26B0123914285D24A4641462000FFF721
:1047D000C1FE636A002B00D071E0002800D06BE0BE
:1047E00001F050FE012005B0C0BCB946B046F0BD96
:1047F000036C002B00D15DE772B6FEE7E36B012B83
:1048000000D15BE772B6FEE72700103701F03AFEF1
:104810003800019901F0C2FA01F028FE4523E55C59
:104820006DB2002D05DC13E0013DEAB26DB2002A45
:104830000ED0636A002B0BD0300001F0FFFA002885
:10484000F2D0013D01F0C4FBEAB26DB2002AF0D112
:104850004523FF22E25401F015FE01F007FE442338
:10486000E55C6DB2002D05DC13E0013DEAB26DB2EE
:10487000002A0ED02369002B0BD0380001F0DEFA9D
:104880000028F2D0013D01F0A3FBEAB26DB2002A8C
:10489000F0D14423FF22E25401F0F4FD01F014FAB8
:1048A000002800D089E701F0D5FD86E702A801F0D5
:1048B0004DFB16E772B6FEE701F0CCFD90E7200055
:1048C000243001F0BBFA88E701F0DCFD00208AE724
:1048D00001F0CCFD4523E55C6DB2002D12DD260014
:1048E000243604E0013DEAB26DB2002A0AD0636AC0
:1048F000002B07D0300001F0A1FA0028F2D001F01F
:1049000067FBEFE74523FF22E25401F0BBFD01F016
:10491000ADFD4423E55C6DB2002D12DD260010369E
:1049200004E0013DEAB26DB2002A0AD02369002BEF
:1049300007D0300001F082FA0028F2D001F048FBE5
:10494000EFE74423FF22E25401F09CFD01F0BCF9A3
:10495000002048E770B505000C0082B0002938D06F
:1049600050230193019B502B01D072B6FEE7002625
:104970004622019B01238B542160CB630E6401F01E
:1049800075FD216CE36B22684B43D0185B1A6260A3
:10499000D218E260FF234422A0602000A663A35443
:1049A0000132A354103001F08DFE2000243001F0BC
:1049B00089FE01F067FD4C230022E554002100230D
:1049C0002000A6602660E660FFF766FE200002B0C9
:1049D00070BD72B6FEE7C046F0B54F464646D646B5
:1049E0000400C0B51D000F001600002837D00029B4
:1049F00018D0022D04D1E36B012B18D072B6FEE75C
:104A000001F01EFE0021A26BE36B804689469A42AC
:104A100011D3404601F018FE4846E0BCBA46B14604
:104A2000A846F0BD036C002BE3D072B6FEE701F0A0
:104A300007FE8046A36B45239A46E35C2A005BB2DF
:104A4000994639002000A36BFFF784FD4B460133E4
:104A500007D1636A002B12D101239946D9E772B6B8
:104A6000FEE701F045F98145F6D24B467F2B04D095
:104A7000524601335BB2A354EEE772B6FEE7200064
:104A8000243001F0DBF90028E6D0002EE4D0012329
:104A90003360E1E7F0B5C64604000D0000B500281C
:104AA0001BD0036C002B01D072B6FEE70368002B0D
:104AB00015D001F0C5FDA36BE26B06009A4213D935
:104AC0004522A75C01337FB29046A3637B1C13D1C0
:104AD000636A002B1CD1012407E072B6FEE78368ED
:104AE000002BE6D072B6FEE70024300001F0ACFDEA
:104AF000200080BCB846F0BD01F0FAF88742EAD247
:104B00007F2F11D0434601377FB2E7540124ECE7F1
:104B10002000243001F092F90028DCD0002DDAD0FA
:104B2000012301242B60E0E772B6FEE7F0B54746AB
:104B3000CE4680B585B0041E8846019200D138E18A
:104B4000002900D12FE101F091FCA56B002D00D0D0
:104B500031E1019B002B00D1D0E0260002A801F03A
:104B6000F5F94427243601F08DFC01F0A5F801F099
:104B70007DFCE35D5BB2013301D10023E3554522A7
:104B8000A35C5BB2013301D10023A35401F07AFC92
:104B900001A902A801F0E6F900285AD101F066FC4B
:104BA000A36B002B00D0B1E001F06CFC24239946EC
:104BB000A1444846019901F0F1F801F057FC452362
:104BC000E55C6DB2002D05DC13E0013DEAB26DB28B
:104BD000002A0ED0636A002B0BD0484601F02EF954
:104BE0000028F2D0013D01F0F3F9EAB26DB2002ADB
:104BF000F0D14523FF22E25401F044FC01F036FCE1
:104C00004423E55C343B99466DB2A144002D05DC9C
:104C100013E0013DEAB26DB2002A0ED02369002BE9
:104C20000BD0484601F00AF90028F2D0013D01F00E
:104C3000CFF9EAB26DB2002AF0D14423FF22E25448
:104C400001F020FC01F040F800284ED101F002FCF8
:104C50004BE001F00BFC4523E55C6DB2002D05DC5B
:104C600013E0013DEAB26DB2002A0ED0636A002B58
:104C70000BD0300001F0E2F80028F2D0013D01F045
:104C8000A7F9EAB26DB2002AF0D14523FF22E2541F
:104C900001F0F8FB01F0EAFB10239946E55DA14421
:104CA0006DB2002D05DC13E0013DEAB26DB2002AC1
:104CB0000ED02369002B0BD0484601F0BFF8002826
:104CC000F2D0013D01F084F9EAB26DB2002AF0D1D0
:104CD000FF23E35501F0D6FB00F0F6FF01F0C6FB21
:104CE000A36B002B0AD001F0CDFB01F0BFFBA56B3D
:104CF000002D60D1019B002B00D034E701F0C2FBF6
:104D0000002005B0C0BCB946B046F0BD01F0BAFB0A
:104D100001F0ACFB4523E55C213B99466DB2A14413
:104D2000002D05DC13E0013DEAB26DB2002A0ED081
:104D3000636A002B0BD0484601F080F80028F2D0BF
:104D4000013D01F045F9EAB26DB2002AF0D14523E8
:104D5000FF22E25401F096FB01F088FB4423E55C5E
:104D6000343B99466DB2A144002D05DC13E0013DB2
:104D7000EAB26DB2002A0ED02369002B0BD0484650
:104D800001F05CF80028F2D0013D01F021F9EAB20F
:104D90006DB2002AF0D14423FF22E25401F072FBED
:104DA00000F092FFA1E7036C002B00D1CBE672B6B6
:104DB000FEE772B6FEE7226C002A0AD0E168A3681B
:104DC0008918E160994201D32168E160404605F00D
:104DD000C8FE2369013DA563002B03D101F052FBFE
:104DE00001208EE72000103001F028F80028F5D0CF
:104DF00001F030FBF2E7C046F0B5CE46474680B53D
:104E000085B0041E019100D1EFE0036C002B00D0AF
:104E100094E001F02BFBA36B002B00D053E1019B2E
:104E2000002B00D13EE102A801F090F800232600FB
:104E300098464427243601F025FB00F03DFF01F0A1
:104E400015FBE35D5BB2013301D10023E35545223D
:104E5000A35C5BB2013301D10023A35401F012FB28
:104E600001A902A801F07EF8002869D101F0FEFA3C
:104E7000A36B002B00D0BDE001F004FB2368002BE6
:104E800000D117E124239946A1444846019900F036
:104E900085FF01F0EBFA4523E55C6DB2002D05DCE2
:104EA00013E0013DEAB26DB2002A0ED0636A002B16
:104EB0000BD0484600F0C2FF0028F2D0013D01F0BF
:104EC00087F8EAB26DB2002AF0D14523FF22E254FE
:104ED00001F0D8FA01F0CAFA4423E55C6DB2002D66
:104EE00017DD343B9946A14404E0013DEAB26DB2BE
:104EF000002A0ED02369002B0BD0484600F09EFFFD
:104F00000028F2D0013D01F063F8EAB26DB2002A48
:104F1000F0D14423FF22E25401F0B4FA00F0D4FEB1
:104F2000002800D1B3E001F0A1FAA36B002B00D060
:104F3000C9E0019B002B00D07DE7B3E072B6FEE72D
:104F400001F094FA4523E55C6DB2002D05DC13E019
:104F5000013DEAB26DB2002A0ED0636A002B0BD07D
:104F6000300000F06BFF0028F2D0013D01F030F876
:104F7000EAB26DB2002AF0D14523FF22E25401F0DB
:104F800081FA01F073FAE55D6DB2002D17DD102393
:104F90009946A14404E0013DEAB26DB2002A0ED068
:104FA0002369002B0BD0484600F048FF0028F2D0C0
:104FB000013D01F00DF8EAB26DB2002AF0D1FF23F5
:104FC000E35501F05FFA00F07FFE01F04FFAA36BAA
:104FD000002B0CD101F056FA4346002B5AD1002089
:104FE00005B0C0BCB946B046F0BD72B6FEE701F0F0
:104FF00049FA98E701F046FA01F038FA4523E55CF2
:105000006DB2002D17DD213B9946A14404E0013D1E
:10501000EAB26DB2002A0ED0636A002B0BD048466C
:1050200000F00CFF0028F2D0013D00F0D1FFEAB201
:105030006DB2002AF0D14523FF22E25401F022FA9A
:1050400001F014FA4423E55C6DB2002D17DD343B0A
:105050009946A14404E0013DEAB26DB2002A0ED0A7
:105060002369002B0BD0484600F0E8FE0028F2D060
:10507000013D00F0ADFFEAB26DB2002AF0D1442349
:10508000FF22E25401F0FEF900F01EFE4BE701F0B2
:10509000E1F948E701F0EAF9616A002905D1A06861
:1050A00001F04CF801F0EEF999E70421236B1B683D
:1050B000C91AF4E701F0DAF9A06800F0B7FF8046FA
:1050C00001F0E0F9DEE6013BA3632368002B0FD07B
:1050D0002369002B03D101F0D5F9012080E72000DE
:1050E000103000F0ABFE0028F5D001F0B3F9F2E784
:1050F00001F06AF8A060EBE7F0B5C64600B5040021
:1051000001F0B4F9384A394E13680133136033683B
:10511000002B35D0364BE26A98461B68002B29D00D
:10512000344D35490B6801330B60A364334B196868
:10513000914200D21A6093009B189B00E9184A68BC
:105140009068A26084466746E060201D78609060A9
:10515000EA5861610132EA5001F094F943461B6854
:10516000002B04D03368DA6AE36A9A4211D380BC18
:10517000B846F0BD3368DB6A9342D1D83460CFE7DC
:1051800034601368012B07D0194BE26A9846194D19
:10519000C7E701F05FF9EAE7164D280001F092FA3F
:1051A0002800143001F08EFA2800283001F08AFA25
:1051B00028003C3001F086FA114B9846180001F0A7
:1051C00081FA104F380001F07DFA0F4801F07AFAA9
:1051D0000E4801F077FA42460D4B1A600D4BE26A19
:1051E0001F60034B98469CE710220020BC22002041
:1051F000042200206C220020F4210020082200203C
:1052000058220020442200202822002014220020BE
:10521000402200203C22002000222C4B70B51A6056
:105220000BF05AFF2A4B2B4A1B68C01A2A4B1860F6
:1052300019681068814239D8284C1B68284D1360C2
:105240002A682849930098188000085800281ED121
:10525000002A33D0501E83001E18B6008E59002E2F
:1052600031D100282AD0901E83001E18B6008E5916
:10527000002E28D1002821D0D01E83001E18B60091
:105280008E59002E1FD1043A9300002816D09B1887
:105290009B00CE18706808334068C9187060884257
:1052A0000ED0C36823602A60236870BD0B4C1E6853
:1052B0002568A96D091A8919A965BEE772B6FEE7C6
:1052C000F0687060EDE70200E1E7C046FC210020D5
:1052D000E0210020E8210020E4210020BC22002061
:1052E000082200206C220020F8B55746DE464E46C4
:1052F0004546E0B50F68002F3FD008239946CE6899
:105300008944B1454DD0284B0400984602239B4662
:10531000264B00279A46F568002D35D02B00296BC7
:1053200034336360EB6AE16123612B68256023629B
:105330006B6C6362AB6CA3602B6D6361AB6DA3613F
:1053400043461B689D4222D05B46237301F08EF8D2
:10535000AB6A534522D001F095F8296B0B78A52B49
:105360001AD100230133CA5CA52AFBD09B087668BA
:10537000A36201372C34B145CDD13800F0BCBB4617
:10538000B246A946A046F8BD43461D68C6E70023BD
:1053900023730B78A52BE4D00023E8E701232373C4
:1053A000D9E70027E9E7C046BC22002028220020D8
:1053B000F0B5DE4657464E4645465B4BE0B51A68AB
:1053C00083B0013294461A60002A5FD057490B68B7
:1053D0009C4562D3564B99461B681B68002B00D135
:1053E0009CE000239846534B534E9B46534B0191F0
:1053F0009A4639E0002159611168013911609A6AB1
:10540000002A0ED0D969186A556888604160190071
:1054100018318D4200D171E0002199621168013983
:1054200011605246D96A1268914201D95246116000
:105430008A0052189200B518686887689860DF6023
:105440007C6084605D61B3580133B3505B461B6878
:105450004246DB6A8B429B415B421A434B461B68C8
:1054600090461B68002B54D04B461B68DB68DB68FA
:105470005A6894454AD35A699868D9681C1D816056
:1054800048605068A042B5D15160B3E7284B1A6814
:105490001268002A20D072B6FEE700239846254BFA
:1054A000254E9B465B4601201B68254AD96A126837
:1054B0008B005B189B00F3589842804113005A1EE2
:1054C0009341404218434346184303B0F0BCBB46E7
:1054D000B246A946A046F0BD1A4A1968106818607D
:1054E000116019490A6801320A601A681268002AB4
:1054F00006D101230D495B420B6068E750608BE7E2
:105500001B680A49DB681B680B6060E701990A6049
:10551000C8E7019901235B420B60C3E79846054B3E
:10552000054E9B46F6E7C0460C220020F0210020E5
:1055300040220020BC2200206C22002008220020F3
:10554000FC2100203C220020F8210020F0B5DE469E
:1055500057464E464546544CE0B5236883B0013B60
:1055600023602368002B00D081E0504B1B68002B88
:105570007DD04F4B9C461B68002B00D190E04D4BDB
:105580004D4D98464D4B019499464D4B9A460023FC
:105590009B466346DB68DB68D869196A9A6A816052
:1055A0004860180056681830864200D172E05946AB
:1055B00099621168013911605A699868D96856680A
:1055C00081604860181D864262D0116801391160FF
:1055D0004146DA6A09688A4201D941460A60910067
:1055E00089188C002E1971688F689960DF60786067
:1055F00088605E612B5901332B514B461B68DB6A77
:105600009A423FD9534601221A6063461B68002B19
:10561000BFD12C4B019C1A681268002A3CD01B6831
:10562000DB681A68284B1A60284E3568002D14D0A4
:10563000012708E0FFF7BCFE002801D053461F6099
:10564000013D002D08D02368002BF3D03368013DC5
:1056500001333360002DF6D1356053461B68002BB3
:1056600005D0164B01241B6800F0F4FE00E0002476
:1056700000F008FF200003B0F0BCBB46B246A946CC
:10568000A046F0BD63461B68002B00D081E7C0E751
:1056900051609AE751608AE70B4B013A1A60C3E701
:1056A000074B9A46C0E7C046EC210020102200209C
:1056B00028220020082200206C220020BC2200208A
:1056C000FC21002040220020F021002000220020A8
:1056D000404BF0B5D6469A463F4B4F464646994614
:1056E0003E4BC0B598463E4F3E4C3F4D3E68012E66
:1056F00018D82368002B4BD12B68DB6A002B1AD0FB
:105700003A682368002B41D12B68DB6A002BF8D163
:10571000012A1DD92368002B38D12B68DB6A002BA6
:10572000EFD1F7E700F096FE2368002B32D12B680B
:10573000DB6A002BDAD13B68012B41D9012EDFD97E
:10574000D4E72368002B21D12B68DB6A002BD8D14A
:10575000534649461B6809685B1A012BF1D9434639
:1057600042461B680133136053461A684B461B6858
:105770009A422DD32368002B11D02B6800F076FEBF
:1057800043461B68002B07D172B6FEE72B68B8E7CB
:105790002B68B5E72B68A9E7FFF7D8FEA6E72B68CB
:1057A000DB6A002BEAD13B68012BE7D85346186827
:1057B0004B461B68C01A0128E0D9FEF777FADDE7EF
:1057C00053464A461B6812689B1A012BC7D8B5E797
:1057D00072B6FEE7F02100200C220020EC21002010
:1057E0006C22002008220020BC220020F8B5CE4602
:1057F000474604000D0080B5414B002830D0210001
:10580000343120686960E16A2C602961216B28626B
:10581000606CE9616862A06CA860206D6861A06D31
:10582000A861052A31D01B689C421BD02A73032A29
:105830001BD000F01BFE334BA26A9A424DD000F001
:1058400021FE216B0B78A52B4DD100230133CA5CBF
:10585000A52AFBD09B08AB62C0BCB946B046F8BDD8
:105860001C68CCE700232B73ECE7274E3368013329
:105870003360A36A002B3BD002232B7300F0F6FDAC
:105880003368002B2CD172B6FEE71A6800239442CD
:1058900021D000F0EBFD1D4B66691B68A76A984696
:1058A0001B4B1B68994600F0EDFD164B216B9F4288
:1058B00023D0464519D04E4517D0164A01239642AB
:1058C00009D1A26A0133002A05D15E33E35C013BB2
:1058D0005A1E934102332B73B4E701232B73AEE7B7
:1058E000FFF734FEA5E70023B5E702232B73A9E7F2
:1058F0006023E35C012BBFD0C0E701232B73A1E73A
:10590000BC22002028220020EC2100204022002080
:105910003C22002014220020F0B54746CE4680B538
:1059200083B098460B9B07000D0014000C9E002BC3
:105930000AD0002E06D064230193019B642B05D06E
:1059400072B6FEE772B6FEE772B6FEE76422002189
:105950003000019B05F074F80B9B02223363612336
:10596000A400F254A52122000B9805F069F8336BCE
:10597000043C1C1907239C437464002D4BD0342233
:105980002B78B354002B43D06B780132B354002BE7
:105990003ED0AB780132B354002B39D0EB780132D2
:1059A000B354002B34D02B790132B354002B2FD0B9
:1059B0006B790132B354002B2AD0AB790132B35446
:1059C000002B25D0EB790132B354002B20D02B7A59
:1059D0000132B354002B1BD06B7A0132B354002B2D
:1059E00016D0AB7A0132B354002B11D0EB7A0132CE
:1059F000B354002B0CD02B7B0132B354002B07D0B7
:105A00006B7B0132B354002B02D04223AA7BF254A9
:105A100043230022F2540A9B032B01D972B6FEE7FE
:105A2000351DF3623365280000F058FE3000183051
:105A300000F054FE04230A9A39009B1AB3614246CF
:105A400020003661766200F04BFD306000F00EFD04
:105A5000394B3A4F1A6801321A603A68002A34D03A
:105A6000374BF26A98461B68002B04D13B68DB6A0F
:105A70009A4200D33E60334C33490B6801330B60CC
:105A8000B364324B1968914200D21A6093009B189C
:105A90009B00E1184A689068B260F06045609560CC
:105AA000E25871610132E25000F0ECFC43461B68A1
:105AB000002B04D03B68DA6AF36A9A420ED33000B6
:105AC00003B0C0BCB946B046F0BD3E601B68012BB8
:105AD00007D01B4BF26A98461A4CCDE700F0BAFC8F
